{
	"data": {
		"bytecode": {
			"linkReferences": {},
			"object": "608060405234801561000f575f5ffd5b50604051613917380380613917833981810160405281019061003191906102c8565b6040518060400160405280600c81526020017f446f6e6174696f6e4974656d00000000000000000000000000000000000000008152506040518060400160405280600581526020017f444954454d000000000000000000000000000000000000000000000000000000815250815f90816100ab9190610543565b5080600190816100bb9190610543565b5050506100d05f5f1b8361010960201b60201c565b506101017f9f2df0fed2c77648de5860a4cc508cd0818c85b8b8a1ab4ceeef8d981c8956a68261010960201b60201c565b505050610612565b5f61011a83836101ff60201b60201c565b6101f557600160065f8581526020019081526020015f205f015f8473ffffffffffffffffffffffffffffffffffffffff1673ffffffffffffffffffffffffffffffffffffffff1681526020019081526020015f205f6101000a81548160ff02191690831515021790555061019261026360201b60201c565b73ffffffffffffffffffffffffffffffffffffffff168273ffffffffffffffffffffffffffffffffffffffff16847f2f8788117e7eff1d82e926ec794901d17c78024a50270940304540a733656f0d60405160405180910390a4600190506101f9565b5f90505b92915050565b5f60065f8481526020019081526020015f205f015f8373ffffffffffffffffffffffffffffffffffffffff1673ffffffffffffffffffffffffffffffffffffffff1681526020019081526020015f205f9054906101000a900460ff16905092915050565b5f33905090565b5f5ffd5b5f73ffffffffffffffffffffffffffffffffffffffff82169050919050565b5f6102978261026e565b9050919050565b6102a78161028d565b81146102b1575f5ffd5b50565b5f815190506102c28161029e565b92915050565b5f5f604083850312156102de576102dd61026a565b5b5f6102eb858286016102b4565b92505060206102fc858286016102b4565b9150509250929050565b5f81519050919050565b7f4e487b71000000000000000000000000000000000000000000000000000000005f52604160045260245ffd5b7f4e487b71000000000000000000000000000000000000000000000000000000005f52602260045260245ffd5b5f600282049050600182168061038157607f821691505b6020821081036103945761039361033d565b5b50919050565b5f819050815f5260205f209050919050565b5f6020601f8301049050919050565b5f82821b905092915050565b5f600883026103f67fffffffffffffffffffffffffffffffffffffffffffffffffffffffffffffffff826103bb565b61040086836103bb565b95508019841693508086168417925050509392505050565b5f819050919050565b5f819050919050565b5f61044461043f61043a84610418565b610421565b610418565b9050919050565b5f819050919050565b61045d8361042a565b6104716104698261044b565b8484546103c7565b825550505050565b5f5f905090565b610488610479565b610493818484610454565b505050565b5b818110156104b6576104ab5f82610480565b600181019050610499565b5050565b601f8211156104fb576104cc8161039a565b6104d5846103ac565b810160208510156104e4578190505b6104f86104f0856103ac565b830182610498565b50505b505050565b5f82821c905092915050565b5f61051b5f1984600802610500565b1980831691505092915050565b5f610533838361050c565b9150826002028217905092915050565b61054c82610306565b67ffffffffffffffff81111561056557610564610310565b5b61056f825461036a565b61057a8282856104ba565b5f60209050601f8311600181146105ab575f8415610599578287015190505b6105a38582610528565b86555061060a565b601f1984166105b98661039a565b5f5b828110156105e0578489015182556001820191506020850194506020810190506105bb565b868310156105fd57848901516105f9601f89168261050c565b8355505b6001600288020188555050505b505050505050565b6132f88061061f5f395ff3fe608060405234801561000f575f5ffd5b50600436106101a7575f3560e01c806370a08231116100f7578063b4b5b48f11610095578063d53913931161006f578063d539139314610528578063d547741f14610546578063d9548e5314610562578063e985e9c514610592576101a7565b8063b4b5b48f146104ab578063b88d4fde146104dc578063c87b56dd146104f8576101a7565b806395d89b41116100d157806395d89b4114610421578063a217fddf1461043f578063a22cb4651461045d578063b09afec114610479576101a7565b806370a082311461039157806385d37430146103c157806391d14854146103f1576101a7565b80632f2ff15d116101645780633f54c2841161013e5780633f54c284146102f957806342842e0e146103155780634f558e79146103315780636352211e14610361576101a7565b80632f2ff15d14610291578063336ccba5146102ad57806336568abe146102dd576101a7565b806301ffc9a7146101ab57806306fdde03146101db578063081812fc146101f9578063095ea7b31461022957806323b872dd14610245578063248a9ca314610261575b5f5ffd5b6101c560048036038101906101c09190612349565b6105c2565b6040516101d2919061238e565b60405180910390f35b6101e36105d3565b6040516101f09190612417565b60405180910390f35b610213600480360381019061020e919061246a565b610662565b60405161022091906124d4565b60405180910390f35b610243600480360381019061023e9190612517565b61067d565b005b61025f600480360381019061025a9190612555565b610693565b005b61027b600480360381019061027691906125d8565b610792565b6040516102889190612612565b60405180910390f35b6102ab60048036038101906102a6919061262b565b6107af565b005b6102c760048036038101906102c2919061246a565b6107d1565b6040516102d4919061238e565b60405180910390f35b6102f760048036038101906102f2919061262b565b610933565b005b610313600480360381019061030e91906127bf565b6109ae565b005b61032f600480360381019061032a9190612555565b610a74565b005b61034b6004803603810190610346919061246a565b610a93565b604051610358919061238e565b60405180910390f35b61037b6004803603810190610376919061246a565b610b1e565b60405161038891906124d4565b60405180910390f35b6103ab60048036038101906103a6919061282b565b610b2f565b6040516103b89190612865565b60405180910390f35b6103db60048036038101906103d6919061287e565b610be5565b6040516103e89190612865565b60405180910390f35b61040b6004803603810190610406919061262b565b610cf5565b604051610418919061238e565b60405180910390f35b610429610d59565b6040516104369190612417565b60405180910390f35b610447610de9565b6040516104549190612612565b60405180910390f35b6104776004803603810190610472919061291a565b610def565b005b610493600480360381019061048e919061246a565b610e05565b6040516104a293929190612ac6565b60405180910390f35b6104c560048036038101906104c0919061246a565b610fec565b6040516104d3929190612b09565b60405180910390f35b6104f660048036038101906104f19190612bd5565b611092565b005b610512600480360381019061050d919061246a565b6110b7565b60405161051f9190612417565b60405180910390f35b61053061111d565b60405161053d9190612612565b60405180910390f35b610560600480360381019061055b919061262b565b611141565b005b61057c6004803603810190610577919061246a565b611163565b604051610589919061238e565b60405180910390f35b6105ac60048036038101906105a79190612c55565b611182565b6040516105b9919061238e565b60405180910390f35b5f6105cc82611210565b9050919050565b60605f80546105e190612cc0565b80601f016020809104026020016040519081016040528092919081815260200182805461060d90612cc0565b80156106585780601f1061062f57610100808354040283529160200191610658565b820191905f5260205f20905b81548152906001019060200180831161063b57829003601f168201915b5050505050905090565b5f61066c82611289565b506106768261130f565b9050919050565b61068f828261068a611348565b61134f565b5050565b5f73ffffffffffffffffffffffffffffffffffffffff168273ffffffffffffffffffffffffffffffffffffffff1603610703575f6040517f64a0ae920000000000000000000000000000000000000000000000000000000081526004016106fa91906124d4565b60405180910390fd5b5f6107168383610711611348565b611361565b90508373ffffffffffffffffffffffffffffffffffffffff168173ffffffffffffffffffffffffffffffffffffffff161461078c578382826040517f64283d7b00000000000000000000000000000000000000000000000000000000815260040161078393929190612cf0565b60405180910390fd5b50505050565b5f60065f8381526020019081526020015f20600101549050919050565b6107b882610792565b6107c18161156c565b6107cb8383611580565b50505050565b5f5f60085f8481526020019081526020015f20600101600160085f8681526020019081526020015f206001018054905061080b9190612d52565b8154811061081c5761081b612d85565b5b905f5260205f2090600302016040518060600160405290815f8201805461084290612cc0565b80601f016020809104026020016040519081016040528092919081815260200182805461086e90612cc0565b80156108b95780601f10610890576101008083540402835291602001916108b9565b820191905f5260205f20905b81548152906001019060200180831161089c57829003601f168201915b5050505050815260200160018201548152602001600282015f9054906101000a900460ff161515151581525050905080604001511561092d576040517f08c379a000000000000000000000000000000000000000000000000000000000815260040161092490612dfc565b60405180910390fd5b50919050565b61093b611348565b73ffffffffffffffffffffffffffffffffffffffff168173ffffffffffffffffffffffffffffffffffffffff161461099f576040517f6697b23200000000000000000000000000000000000000000000000000000000815260040160405180910390fd5b6109a9828261166a565b505050565b7f9f2df0fed2c77648de5860a4cc508cd0818c85b8b8a1ab4ceeef8d981c8956a66109d88161156c565b60085f8581526020019081526020015f206001016040518060600160405280858152602001428152602001841515815250908060018154018082558091505060019003905f5260205f2090600302015f909190919091505f820151815f019081610a429190612fba565b50602082015181600101556040820151816002015f6101000a81548160ff021916908315150217905550505050505050565b610a8e83838360405180602001604052805f815250611092565b505050565b5f3073ffffffffffffffffffffffffffffffffffffffff16636352211e836040518263ffffffff1660e01b8152600401610acd9190612865565b602060405180830381865afa925050508015610b0757506040513d601f19601f82011682018060405250810190610b04919061309d565b60015b610b13575f9050610b19565b60019150505b919050565b5f610b2882611289565b9050919050565b5f5f73ffffffffffffffffffffffffffffffffffffffff168273ffffffffffffffffffffffffffffffffffffffff1603610ba0575f6040517f89c62b64000000000000000000000000000000000000000000000000000000008152600401610b9791906124d4565b60405180910390fd5b60035f8373ffffffffffffffffffffffffffffffffffffffff1673ffffffffffffffffffffffffffffffffffffffff1681526020019081526020015f20549050919050565b5f7f9f2df0fed2c77648de5860a4cc508cd0818c85b8b8a1ab4ceeef8d981c8956a6610c108161156c565b5f60075f815480929190610c23906130c8565b919050559050610c338782611754565b5f60085f8381526020019081526020015f20905086815f019081610c579190612fba565b508581600201819055508060010160405180606001604052808781526020014281526020015f1515815250908060018154018082558091505060019003905f5260205f2090600302015f909190919091505f820151815f019081610cbb9190612fba565b50602082015181600101556040820151816002015f6101000a81548160ff0219169083151502179055505050819350505050949350505050565b5f60065f8481526020019081526020015f205f015f8373ffffffffffffffffffffffffffffffffffffffff1673ffffffffffffffffffffffffffffffffffffffff1681526020019081526020015f205f9054906101000a900460ff16905092915050565b606060018054610d6890612cc0565b80601f0160208091040260200160405190810160405280929190818152602001828054610d9490612cc0565b8015610ddf5780601f10610db657610100808354040283529160200191610ddf565b820191905f5260205f20905b815481529060010190602001808311610dc257829003601f168201915b5050505050905090565b5f5f1b81565b610e01610dfa611348565b8383611771565b5050565b6060805f5f60085f8681526020019081526020015f206040518060600160405290815f82018054610e3590612cc0565b80601f0160208091040260200160405190810160405280929190818152602001828054610e6190612cc0565b8015610eac5780601f10610e8357610100808354040283529160200191610eac565b820191905f5260205f20905b815481529060010190602001808311610e8f57829003601f168201915b5050505050815260200160018201805480602002602001604051908101604052809291908181526020015f905b82821015610fbc578382905f5260205f2090600302016040518060600160405290815f82018054610f0990612cc0565b80601f0160208091040260200160405190810160405280929190818152602001828054610f3590612cc0565b8015610f805780601f10610f5757610100808354040283529160200191610f80565b820191905f5260205f20905b815481529060010190602001808311610f6357829003601f168201915b5050505050815260200160018201548152602001600282015f9054906101000a900460ff16151515158152505081526020019060010190610ed9565b5050505081526020016002820154815250509050805f015181602001518260400151935093509350509193909250565b6008602052805f5260405f205f91509050805f01805461100b90612cc0565b80601f016020809104026020016040519081016040528092919081815260200182805461103790612cc0565b80156110825780601f1061105957610100808354040283529160200191611082565b820191905f5260205f20905b81548152906001019060200180831161106557829003601f168201915b5050505050908060020154905082565b61109d848484610693565b6110b16110a8611348565b858585856118da565b50505050565b60606110c282611289565b505f6110cc611a86565b90505f8151116110ea5760405180602001604052805f815250611115565b806110f484611a9c565b604051602001611105929190613149565b6040516020818303038152906040525b915050919050565b7f9f2df0fed2c77648de5860a4cc508cd0818c85b8b8a1ab4ceeef8d981c8956a681565b61114a82610792565b6111538161156c565b61115d838361166a565b50505050565b5f60085f8381526020019081526020015f206002015442119050919050565b5f60055f8473ffffffffffffffffffffffffffffffffffffffff1673ffffffffffffffffffffffffffffffffffffffff1681526020019081526020015f205f8373ffffffffffffffffffffffffffffffffffffffff1673ffffffffffffffffffffffffffffffffffffffff1681526020019081526020015f205f9054906101000a900460ff16905092915050565b5f7f7965db0b000000000000000000000000000000000000000000000000000000007bffffffffffffffffffffffffffffffffffffffffffffffffffffffff1916827bffffffffffffffffffffffffffffffffffffffffffffffffffffffff19161480611282575061128182611b66565b5b9050919050565b5f5f61129483611c47565b90505f73ffffffffffffffffffffffffffffffffffffffff168173ffffffffffffffffffffffffffffffffffffffff160361130657826040517f7e2732890000000000000000000000000000000000000000000000000000000081526004016112fd9190612865565b60405180910390fd5b80915050919050565b5f60045f8381526020019081526020015f205f9054906101000a900473ffffffffffffffffffffffffffffffffffffffff169050919050565b5f33905090565b61135c8383836001611c80565b505050565b5f5f61136c84611c47565b90505f73ffffffffffffffffffffffffffffffffffffffff168373ffffffffffffffffffffffffffffffffffffffff16146113ad576113ac818486611e3f565b5b5f73ffffffffffffffffffffffffffffffffffffffff168173ffffffffffffffffffffffffffffffffffffffff1614611438576113ec5f855f5f611c80565b600160035f8373ffffffffffffffffffffffffffffffffffffffff1673ffffffffffffffffffffffffffffffffffffffff1681526020019081526020015f205f82825403925050819055505b5f73ffffffffffffffffffffffffffffffffffffffff168573ffffffffffffffffffffffffffffffffffffffff16146114b757600160035f8773ffffffffffffffffffffffffffffffffffffffff1673ffffffffffffffffffffffffffffffffffffffff1681526020019081526020015f205f82825401925050819055505b8460025f8681526020019081526020015f205f6101000a81548173ffffffffffffffffffffffffffffffffffffffff021916908373ffffffffffffffffffffffffffffffffffffffff160217905550838573ffffffffffffffffffffffffffffffffffffffff168273ffffffffffffffffffffffffffffffffffffffff167fddf252ad1be2c89b69c2b068fc378daa952ba7f163c4a11628f55a4df523b3ef60405160405180910390a4809150509392505050565b61157d81611578611348565b611f02565b50565b5f61158b8383610cf5565b61166057600160065f8581526020019081526020015f205f015f8473ffffffffffffffffffffffffffffffffffffffff1673ffffffffffffffffffffffffffffffffffffffff1681526020019081526020015f205f6101000a81548160ff0219169083151502179055506115fd611348565b73ffffffffffffffffffffffffffffffffffffffff168273ffffffffffffffffffffffffffffffffffffffff16847f2f8788117e7eff1d82e926ec794901d17c78024a50270940304540a733656f0d60405160405180910390a460019050611664565b5f90505b92915050565b5f6116758383610cf5565b1561174a575f60065f8581526020019081526020015f205f015f8473ffffffffffffffffffffffffffffffffffffffff1673ffffffffffffffffffffffffffffffffffffffff1681526020019081526020015f205f6101000a81548160ff0219169083151502179055506116e7611348565b73ffffffffffffffffffffffffffffffffffffffff168273ffffffffffffffffffffffffffffffffffffffff16847ff6391f5c32d9c69d2a47ea670b442974b53935d1edc7fd64eb21e047a839171b60405160405180910390a46001905061174e565b5f90505b92915050565b61176d828260405180602001604052805f815250611f53565b5050565b5f73ffffffffffffffffffffffffffffffffffffffff168273ffffffffffffffffffffffffffffffffffffffff16036117e157816040517f5b08ba180000000000000000000000000000000000000000000000000000000081526004016117d891906124d4565b60405180910390fd5b8060055f8573ffffffffffffffffffffffffffffffffffffffff1673ffffffffffffffffffffffffffffffffffffffff1681526020019081526020015f205f8473ffffffffffffffffffffffffffffffffffffffff1673ffffffffffffffffffffffffffffffffffffffff1681526020019081526020015f205f6101000a81548160ff0219169083151502179055508173ffffffffffffffffffffffffffffffffffffffff168373ffffffffffffffffffffffffffffffffffffffff167f17307eab39ab6107e8899845ad3d59bd9653f200f220920489ca2b5937696c31836040516118cd919061238e565b60405180910390a3505050565b5f8373ffffffffffffffffffffffffffffffffffffffff163b1115611a7f578273ffffffffffffffffffffffffffffffffffffffff1663150b7a02868685856040518563ffffffff1660e01b815260040161193894939291906131be565b6020604051808303815f875af192505050801561197357506040513d601f19601f82011682018060405250810190611970919061321c565b60015b6119f4573d805f81146119a1576040519150601f19603f3d011682016040523d82523d5f602084013e6119a6565b606091505b505f8151036119ec57836040517f64a0ae920000000000000000000000000000000000000000000000000000000081526004016119e391906124d4565b60405180910390fd5b805160208201fd5b63150b7a0260e01b7bffffffffffffffffffffffffffffffffffffffffffffffffffffffff1916817bffffffffffffffffffffffffffffffffffffffffffffffffffffffff191614611a7d57836040517f64a0ae92000000000000000000000000000000000000000000000000000000008152600401611a7491906124d4565b60405180910390fd5b505b5050505050565b606060405180602001604052805f815250905090565b60605f6001611aaa84611f76565b0190505f8167ffffffffffffffff811115611ac857611ac7612671565b5b6040519080825280601f01601f191660200182016040528015611afa5781602001600182028036833780820191505090505b5090505f82602083010190505b600115611b5b578080600190039150507f3031323334353637383961626364656600000000000000000000000000000000600a86061a8153600a8581611b5057611b4f613247565b5b0494505f8503611b07575b819350505050919050565b5f7f80ac58cd000000000000000000000000000000000000000000000000000000007bffffffffffffffffffffffffffffffffffffffffffffffffffffffff1916827bffffffffffffffffffffffffffffffffffffffffffffffffffffffff19161480611c3057507f5b5e139f000000000000000000000000000000000000000000000000000000007bffffffffffffffffffffffffffffffffffffffffffffffffffffffff1916827bffffffffffffffffffffffffffffffffffffffffffffffffffffffff1916145b80611c405750611c3f826120c7565b5b9050919050565b5f60025f8381526020019081526020015f205f9054906101000a900473ffffffffffffffffffffffffffffffffffffffff169050919050565b8080611cb857505f73ffffffffffffffffffffffffffffffffffffffff168273ffffffffffffffffffffffffffffffffffffffff1614155b15611dea575f611cc784611289565b90505f73ffffffffffffffffffffffffffffffffffffffff168373ffffffffffffffffffffffffffffffffffffffff1614158015611d3157508273ffffffffffffffffffffffffffffffffffffffff168173ffffffffffffffffffffffffffffffffffffffff1614155b8015611d445750611d428184611182565b155b15611d8657826040517fa9fbf51f000000000000000000000000000000000000000000000000000000008152600401611d7d91906124d4565b60405180910390fd5b8115611de857838573ffffffffffffffffffffffffffffffffffffffff168273ffffffffffffffffffffffffffffffffffffffff167f8c5be1e5ebec7d5bd14f71427d1e84f3dd0314c0f7b2291e5b200ac8c7c3b92560405160405180910390a45b505b8360045f8581526020019081526020015f205f6101000a81548173ffffffffffffffffffffffffffffffffffffffff021916908373ffffffffffffffffffffffffffffffffffffffff16021790555050505050565b611e4a838383612130565b611efd575f73ffffffffffffffffffffffffffffffffffffffff168373ffffffffffffffffffffffffffffffffffffffff1603611ebe57806040517f7e273289000000000000000000000000000000000000000000000000000000008152600401611eb59190612865565b60405180910390fd5b81816040517f177e802f000000000000000000000000000000000000000000000000000000008152600401611ef4929190613274565b60405180910390fd5b505050565b611f0c8282610cf5565b611f4f5780826040517fe2517d3f000000000000000000000000000000000000000000000000000000008152600401611f4692919061329b565b60405180910390fd5b5050565b611f5d83836121f0565b611f71611f68611348565b5f8585856118da565b505050565b5f5f5f90507a184f03e93ff9f4daa797ed6e38ed64bf6a1f0100000000000000008310611fd2577a184f03e93ff9f4daa797ed6e38ed64bf6a1f0100000000000000008381611fc857611fc7613247565b5b0492506040810190505b6d04ee2d6d415b85acef8100000000831061200f576d04ee2d6d415b85acef8100000000838161200557612004613247565b5b0492506020810190505b662386f26fc10000831061203e57662386f26fc10000838161203457612033613247565b5b0492506010810190505b6305f5e1008310612067576305f5e100838161205d5761205c613247565b5b0492506008810190505b612710831061208c57612710838161208257612081613247565b5b0492506004810190505b606483106120af57606483816120a5576120a4613247565b5b0492506002810190505b600a83106120be576001810190505b80915050919050565b5f7f01ffc9a7000000000000000000000000000000000000000000000000000000007bffffffffffffffffffffffffffffffffffffffffffffffffffffffff1916827bffffffffffffffffffffffffffffffffffffffffffffffffffffffff1916149050919050565b5f5f73ffffffffffffffffffffffffffffffffffffffff168373ffffffffffffffffffffffffffffffffffffffff16141580156121e757508273ffffffffffffffffffffffffffffffffffffffff168473ffffffffffffffffffffffffffffffffffffffff1614806121a857506121a78484611182565b5b806121e657508273ffffffffffffffffffffffffffffffffffffffff166121ce8361130f565b73ffffffffffffffffffffffffffffffffffffffff16145b5b90509392505050565b5f73ffffffffffffffffffffffffffffffffffffffff168273ffffffffffffffffffffffffffffffffffffffff1603612260575f6040517f64a0ae9200000000000000000000000000000000000000000000000000000000815260040161225791906124d4565b60405180910390fd5b5f61226c83835f611361565b90505f73ffffffffffffffffffffffffffffffffffffffff168173ffffffffffffffffffffffffffffffffffffffff16146122de575f6040517f73c6ac6e0000000000000000000000000000000000000000000000000000000081526004016122d591906124d4565b60405180910390fd5b505050565b5f604051905090565b5f5ffd5b5f5ffd5b5f7fffffffff0000000000000000000000000000000000000000000000000000000082169050919050565b612328816122f4565b8114612332575f5ffd5b50565b5f813590506123438161231f565b92915050565b5f6020828403121561235e5761235d6122ec565b5b5f61236b84828501612335565b91505092915050565b5f8115159050919050565b61238881612374565b82525050565b5f6020820190506123a15f83018461237f565b92915050565b5f81519050919050565b5f82825260208201905092915050565b8281835e5f83830152505050565b5f601f19601f8301169050919050565b5f6123e9826123a7565b6123f381856123b1565b93506124038185602086016123c1565b61240c816123cf565b840191505092915050565b5f6020820190508181035f83015261242f81846123df565b905092915050565b5f819050919050565b61244981612437565b8114612453575f5ffd5b50565b5f8135905061246481612440565b92915050565b5f6020828403121561247f5761247e6122ec565b5b5f61248c84828501612456565b91505092915050565b5f73ffffffffffffffffffffffffffffffffffffffff82169050919050565b5f6124be82612495565b9050919050565b6124ce816124b4565b82525050565b5f6020820190506124e75f8301846124c5565b92915050565b6124f6816124b4565b8114612500575f5ffd5b50565b5f81359050612511816124ed565b92915050565b5f5f6040838503121561252d5761252c6122ec565b5b5f61253a85828601612503565b925050602061254b85828601612456565b9150509250929050565b5f5f5f6060848603121561256c5761256b6122ec565b5b5f61257986828701612503565b935050602061258a86828701612503565b925050604061259b86828701612456565b9150509250925092565b5f819050919050565b6125b7816125a5565b81146125c1575f5ffd5b50565b5f813590506125d2816125ae565b92915050565b5f602082840312156125ed576125ec6122ec565b5b5f6125fa848285016125c4565b91505092915050565b61260c816125a5565b82525050565b5f6020820190506126255f830184612603565b92915050565b5f5f60408385031215612641576126406122ec565b5b5f61264e858286016125c4565b925050602061265f85828601612503565b9150509250929050565b5f5ffd5b5f5ffd5b7f4e487b71000000000000000000000000000000000000000000000000000000005f52604160045260245ffd5b6126a7826123cf565b810181811067ffffffffffffffff821117156126c6576126c5612671565b5b80604052505050565b5f6126d86122e3565b90506126e4828261269e565b919050565b5f67ffffffffffffffff82111561270357612702612671565b5b61270c826123cf565b9050602081019050919050565b828183375f83830152505050565b5f612739612734846126e9565b6126cf565b9050828152602081018484840111156127555761275461266d565b5b612760848285612719565b509392505050565b5f82601f83011261277c5761277b612669565b5b813561278c848260208601612727565b91505092915050565b61279e81612374565b81146127a8575f5ffd5b50565b5f813590506127b981612795565b92915050565b5f5f5f606084860312156127d6576127d56122ec565b5b5f6127e386828701612456565b935050602084013567ffffffffffffffff811115612804576128036122f0565b5b61281086828701612768565b9250506040612821868287016127ab565b9150509250925092565b5f602082840312156128405761283f6122ec565b5b5f61284d84828501612503565b91505092915050565b61285f81612437565b82525050565b5f6020820190506128785f830184612856565b92915050565b5f5f5f5f60808587031215612896576128956122ec565b5b5f6128a387828801612503565b945050602085013567ffffffffffffffff8111156128c4576128c36122f0565b5b6128d087828801612768565b93505060406128e187828801612456565b925050606085013567ffffffffffffffff811115612902576129016122f0565b5b61290e87828801612768565b91505092959194509250565b5f5f604083850312156129305761292f6122ec565b5b5f61293d85828601612503565b925050602061294e858286016127ab565b9150509250929050565b5f81519050919050565b5f82825260208201905092915050565b5f819050602082019050919050565b5f82825260208201905092915050565b5f61299b826123a7565b6129a58185612981565b93506129b58185602086016123c1565b6129be816123cf565b840191505092915050565b6129d281612437565b82525050565b6129e181612374565b82525050565b5f606083015f8301518482035f860152612a018282612991565b9150506020830151612a1660208601826129c9565b506040830151612a2960408601826129d8565b508091505092915050565b5f612a3f83836129e7565b905092915050565b5f602082019050919050565b5f612a5d82612958565b612a678185612962565b935083602082028501612a7985612972565b805f5b85811015612ab45784840389528151612a958582612a34565b9450612aa083612a47565b925060208a01995050600181019050612a7c565b50829750879550505050505092915050565b5f6060820190508181035f830152612ade81866123df565b90508181036020830152612af28185612a53565b9050612b016040830184612856565b949350505050565b5f6040820190508181035f830152612b2181856123df565b9050612b306020830184612856565b9392505050565b5f67ffffffffffffffff821115612b5157612b50612671565b5b612b5a826123cf565b9050602081019050919050565b5f612b79612b7484612b37565b6126cf565b905082815260208101848484011115612b9557612b9461266d565b5b612ba0848285612719565b509392505050565b5f82601f830112612bbc57612bbb612669565b5b8135612bcc848260208601612b67565b91505092915050565b5f5f5f5f60808587031215612bed57612bec6122ec565b5b5f612bfa87828801612503565b9450506020612c0b87828801612503565b9350506040612c1c87828801612456565b925050606085013567ffffffffffffffff811115612c3d57612c3c6122f0565b5b612c4987828801612ba8565b91505092959194509250565b5f5f60408385031215612c6b57612c6a6122ec565b5b5f612c7885828601612503565b9250506020612c8985828601612503565b9150509250929050565b7f4e487b71000000000000000000000000000000000000000000000000000000005f52602260045260245ffd5b5f6002820490506001821680612cd757607f821691505b602082108103612cea57612ce9612c93565b5b50919050565b5f606082019050612d035f8301866124c5565b612d106020830185612856565b612d1d60408301846124c5565b949350505050565b7f4e487b71000000000000000000000000000000000000000000000000000000005f52601160045260245ffd5b5f612d5c82612437565b9150612d6783612437565b9250828203905081811115612d7f57612d7e612d25565b5b92915050565b7f4e487b71000000000000000000000000000000000000000000000000000000005f52603260045260245ffd5b7f46657420736572766972000000000000000000000000000000000000000000005f82015250565b5f612de6600a836123b1565b9150612df182612db2565b602082019050919050565b5f6020820190508181035f830152612e1381612dda565b9050919050565b5f819050815f5260205f209050919050565b5f6020601f8301049050919050565b5f82821b905092915050565b5f60088302612e767fffffffffffffffffffffffffffffffffffffffffffffffffffffffffffffffff82612e3b565b612e808683612e3b565b95508019841693508086168417925050509392505050565b5f819050919050565b5f612ebb612eb6612eb184612437565b612e98565b612437565b9050919050565b5f819050919050565b612ed483612ea1565b612ee8612ee082612ec2565b848454612e47565b825550505050565b5f5f905090565b612eff612ef0565b612f0a818484612ecb565b505050565b5b81811015612f2d57612f225f82612ef7565b600181019050612f10565b5050565b601f821115612f7257612f4381612e1a565b612f4c84612e2c565b81016020851015612f5b578190505b612f6f612f6785612e2c565b830182612f0f565b50505b505050565b5f82821c905092915050565b5f612f925f1984600802612f77565b1980831691505092915050565b5f612faa8383612f83565b9150826002028217905092915050565b612fc3826123a7565b67ffffffffffffffff811115612fdc57612fdb612671565b5b612fe68254612cc0565b612ff1828285612f31565b5f60209050601f831160018114613022575f8415613010578287015190505b61301a8582612f9f565b865550613081565b601f19841661303086612e1a565b5f5b8281101561305757848901518255600182019150602085019450602081019050613032565b868310156130745784890151613070601f891682612f83565b8355505b6001600288020188555050505b505050505050565b5f81519050613097816124ed565b92915050565b5f602082840312156130b2576130b16122ec565b5b5f6130bf84828501613089565b91505092915050565b5f6130d282612437565b91507fffffffffffffffffffffffffffffffffffffffffffffffffffffffffffffffff820361310457613103612d25565b5b600182019050919050565b5f81905092915050565b5f613123826123a7565b61312d818561310f565b935061313d8185602086016123c1565b80840191505092915050565b5f6131548285613119565b91506131608284613119565b91508190509392505050565b5f81519050919050565b5f82825260208201905092915050565b5f6131908261316c565b61319a8185613176565b93506131aa8185602086016123c1565b6131b3816123cf565b840191505092915050565b5f6080820190506131d15f8301876124c5565b6131de60208301866124c5565b6131eb6040830185612856565b81810360608301526131fd8184613186565b905095945050505050565b5f815190506132168161231f565b92915050565b5f60208284031215613231576132306122ec565b5b5f61323e84828501613208565b91505092915050565b7f4e487b71000000000000000000000000000000000000000000000000000000005f52601260045260245ffd5b5f6040820190506132875f8301856124c5565b6132946020830184612856565b9392505050565b5f6040820190506132ae5f8301856124c5565b6132bb6020830184612603565b939250505056fea2646970667358221220f47a848acd9822cdb5183908f9e0b7a3964f052b8aeae74c0bae03afd67b8f5464736f6c634300081e0033",
			"opcodes": "PUSH1 0x80 PUSH1 0x40 MSTORE CALLVALUE DUP1 ISZERO PUSH2 0xF JUMPI PUSH0 PUSH0 REVERT JUMPDEST POP PUSH1 0x40 MLOAD PUSH2 0x3917 CODESIZE SUB DUP1 PUSH2 0x3917 DUP4 CODECOPY DUP2 DUP2 ADD PUSH1 0x40 MSTORE DUP2 ADD SWAP1 PUSH2 0x31 SWAP2 SWAP1 PUSH2 0x2C8 JUMP JUMPDEST PUSH1 0x40 MLOAD DUP1 PUSH1 0x40 ADD PUSH1 0x40 MSTORE DUP1 PUSH1 0xC DUP2 MSTORE PUSH1 0x20 ADD PUSH32 0x446F6E6174696F6E4974656D0000000000000000000000000000000000000000 DUP2 MSTORE POP PUSH1 0x40 MLOAD DUP1 PUSH1 0x40 ADD PUSH1 0x40 MSTORE DUP1 PUSH1 0x5 DUP2 MSTORE PUSH1 0x20 ADD PUSH32 0x444954454D000000000000000000000000000000000000000000000000000000 DUP2 MSTORE POP DUP2 PUSH0 SWAP1 DUP2 PUSH2 0xAB SWAP2 SWAP1 PUSH2 0x543 JUMP JUMPDEST POP DUP1 PUSH1 0x1 SWAP1 DUP2 PUSH2 0xBB SWAP2 SWAP1 PUSH2 0x543 JUMP JUMPDEST POP POP POP PUSH2 0xD0 PUSH0 PUSH0 SHL DUP4 PUSH2 0x109 PUSH1 0x20 SHL PUSH1 0x20 SHR JUMP JUMPDEST POP PUSH2 0x101 PUSH32 0x9F2DF0FED2C77648DE5860A4CC508CD0818C85B8B8A1AB4CEEEF8D981C8956A6 DUP3 PUSH2 0x109 PUSH1 0x20 SHL PUSH1 0x20 SHR JUMP JUMPDEST POP POP POP PUSH2 0x612 JUMP JUMPDEST PUSH0 PUSH2 0x11A DUP4 DUP4 PUSH2 0x1FF PUSH1 0x20 SHL PUSH1 0x20 SHR JUMP JUMPDEST PUSH2 0x1F5 JUMPI PUSH1 0x1 PUSH1 0x6 PUSH0 DUP6 DUP2 MSTORE PUSH1 0x20 ADD SWAP1 DUP2 MSTORE PUSH1 0x20 ADD PUSH0 KECCAK256 PUSH0 ADD PUSH0 DUP5 PUSH20 0xFFFFFFFFFFFFFFFFFFFFFFFFFFFFFFFFFFFFFFFF AND PUSH20 0xFFFFFFFFFFFFFFFFFFFFFFFFFFFFFFFFFFFFFFFF AND DUP2 MSTORE PUSH1 0x20 ADD SWAP1 DUP2 MSTORE PUSH1 0x20 ADD PUSH0 KECCAK256 PUSH0 PUSH2 0x100 EXP DUP2 SLOAD DUP2 PUSH1 0xFF MUL NOT AND SWAP1 DUP4 ISZERO ISZERO MUL OR SWAP1 SSTORE POP PUSH2 0x192 PUSH2 0x263 PUSH1 0x20 SHL PUSH1 0x20 SHR JUMP JUMPDEST PUSH20 0xFFFFFFFFFFFFFFFFFFFFFFFFFFFFFFFFFFFFFFFF AND DUP3 PUSH20 0xFFFFFFFFFFFFFFFFFFFFFFFFFFFFFFFFFFFFFFFF AND DUP5 PUSH32 0x2F8788117E7EFF1D82E926EC794901D17C78024A50270940304540A733656F0D PUSH1 0x40 MLOAD PUSH1 0x40 MLOAD DUP1 SWAP2 SUB SWAP1 LOG4 PUSH1 0x1 SWAP1 POP PUSH2 0x1F9 JUMP JUMPDEST PUSH0 SWAP1 POP JUMPDEST SWAP3 SWAP2 POP POP JUMP JUMPDEST PUSH0 PUSH1 0x6 PUSH0 DUP5 DUP2 MSTORE PUSH1 0x20 ADD SWAP1 DUP2 MSTORE PUSH1 0x20 ADD PUSH0 KECCAK256 PUSH0 ADD PUSH0 DUP4 PUSH20 0xFFFFFFFFFFFFFFFFFFFFFFFFFFFFFFFFFFFFFFFF AND PUSH20 0xFFFFFFFFFFFFFFFFFFFFFFFFFFFFFFFFFFFFFFFF AND DUP2 MSTORE PUSH1 0x20 ADD SWAP1 DUP2 MSTORE PUSH1 0x20 ADD PUSH0 KECCAK256 PUSH0 SWAP1 SLOAD SWAP1 PUSH2 0x100 EXP SWAP1 DIV PUSH1 0xFF AND SWAP1 POP SWAP3 SWAP2 POP POP JUMP JUMPDEST PUSH0 CALLER SWAP1 POP SWAP1 JUMP JUMPDEST PUSH0 PUSH0 REVERT JUMPDEST PUSH0 PUSH20 0xFFFFFFFFFFFFFFFFFFFFFFFFFFFFFFFFFFFFFFFF DUP3 AND SWAP1 POP SWAP2 SWAP1 POP JUMP JUMPDEST PUSH0 PUSH2 0x297 DUP3 PUSH2 0x26E JUMP JUMPDEST SWAP1 POP SWAP2 SWAP1 POP JUMP JUMPDEST PUSH2 0x2A7 DUP2 PUSH2 0x28D JUMP JUMPDEST DUP2 EQ PUSH2 0x2B1 JUMPI PUSH0 PUSH0 REVERT JUMPDEST POP JUMP JUMPDEST PUSH0 DUP2 MLOAD SWAP1 POP PUSH2 0x2C2 DUP2 PUSH2 0x29E JUMP JUMPDEST SWAP3 SWAP2 POP POP JUMP JUMPDEST PUSH0 PUSH0 PUSH1 0x40 DUP4 DUP6 SUB SLT ISZERO PUSH2 0x2DE JUMPI PUSH2 0x2DD PUSH2 0x26A JUMP JUMPDEST JUMPDEST PUSH0 PUSH2 0x2EB DUP6 DUP3 DUP7 ADD PUSH2 0x2B4 JUMP JUMPDEST SWAP3 POP POP PUSH1 0x20 PUSH2 0x2FC DUP6 DUP3 DUP7 ADD PUSH2 0x2B4 JUMP JUMPDEST SWAP2 POP POP SWAP3 POP SWAP3 SWAP1 POP JUMP JUMPDEST PUSH0 DUP2 MLOAD SWAP1 POP SWAP2 SWAP1 POP JUMP JUMPDEST PUSH32 0x4E487B7100000000000000000000000000000000000000000000000000000000 PUSH0 MSTORE PUSH1 0x41 PUSH1 0x4 MSTORE PUSH1 0x24 PUSH0 REVERT JUMPDEST PUSH32 0x4E487B7100000000000000000000000000000000000000000000000000000000 PUSH0 MSTORE PUSH1 0x22 PUSH1 0x4 MSTORE PUSH1 0x24 PUSH0 REVERT JUMPDEST PUSH0 PUSH1 0x2 DUP3 DIV SWAP1 POP PUSH1 0x1 DUP3 AND DUP1 PUSH2 0x381 JUMPI PUSH1 0x7F DUP3 AND SWAP2 POP JUMPDEST PUSH1 0x20 DUP3 LT DUP2 SUB PUSH2 0x394 JUMPI PUSH2 0x393 PUSH2 0x33D JUMP JUMPDEST JUMPDEST POP SWAP2 SWAP1 POP JUMP JUMPDEST PUSH0 DUP2 SWAP1 POP DUP2 PUSH0 MSTORE PUSH1 0x20 PUSH0 KECCAK256 SWAP1 POP SWAP2 SWAP1 POP JUMP JUMPDEST PUSH0 PUSH1 0x20 PUSH1 0x1F DUP4 ADD DIV SWAP1 POP SWAP2 SWAP1 POP JUMP JUMPDEST PUSH0 DUP3 DUP3 SHL SWAP1 POP SWAP3 SWAP2 POP POP JUMP JUMPDEST PUSH0 PUSH1 0x8 DUP4 MUL PUSH2 0x3F6 PUSH32 0xFFFFFFFFFFFFFFFFFFFFFFFFFFFFFFFFFFFFFFFFFFFFFFFFFFFFFFFFFFFFFFFF DUP3 PUSH2 0x3BB JUMP JUMPDEST PUSH2 0x400 DUP7 DUP4 PUSH2 0x3BB JUMP JUMPDEST SWAP6 POP DUP1 NOT DUP5 AND SWAP4 POP DUP1 DUP7 AND DUP5 OR SWAP3 POP POP POP SWAP4 SWAP3 POP POP POP JUMP JUMPDEST PUSH0 DUP2 SWAP1 POP SWAP2 SWAP1 POP JUMP JUMPDEST PUSH0 DUP2 SWAP1 POP SWAP2 SWAP1 POP JUMP JUMPDEST PUSH0 PUSH2 0x444 PUSH2 0x43F PUSH2 0x43A DUP5 PUSH2 0x418 JUMP JUMPDEST PUSH2 0x421 JUMP JUMPDEST PUSH2 0x418 JUMP JUMPDEST SWAP1 POP SWAP2 SWAP1 POP JUMP JUMPDEST PUSH0 DUP2 SWAP1 POP SWAP2 SWAP1 POP JUMP JUMPDEST PUSH2 0x45D DUP4 PUSH2 0x42A JUMP JUMPDEST PUSH2 0x471 PUSH2 0x469 DUP3 PUSH2 0x44B JUMP JUMPDEST DUP5 DUP5 SLOAD PUSH2 0x3C7 JUMP JUMPDEST DUP3 SSTORE POP POP POP POP JUMP JUMPDEST PUSH0 PUSH0 SWAP1 POP SWAP1 JUMP JUMPDEST PUSH2 0x488 PUSH2 0x479 JUMP JUMPDEST PUSH2 0x493 DUP2 DUP5 DUP5 PUSH2 0x454 JUMP JUMPDEST POP POP POP JUMP JUMPDEST JUMPDEST DUP2 DUP2 LT ISZERO PUSH2 0x4B6 JUMPI PUSH2 0x4AB PUSH0 DUP3 PUSH2 0x480 JUMP JUMPDEST PUSH1 0x1 DUP2 ADD SWAP1 POP PUSH2 0x499 JUMP JUMPDEST POP POP JUMP JUMPDEST PUSH1 0x1F DUP3 GT ISZERO PUSH2 0x4FB JUMPI PUSH2 0x4CC DUP2 PUSH2 0x39A JUMP JUMPDEST PUSH2 0x4D5 DUP5 PUSH2 0x3AC JUMP JUMPDEST DUP2 ADD PUSH1 0x20 DUP6 LT ISZERO PUSH2 0x4E4 JUMPI DUP2 SWAP1 POP JUMPDEST PUSH2 0x4F8 PUSH2 0x4F0 DUP6 PUSH2 0x3AC JUMP JUMPDEST DUP4 ADD DUP3 PUSH2 0x498 JUMP JUMPDEST POP POP JUMPDEST POP POP POP JUMP JUMPDEST PUSH0 DUP3 DUP3 SHR SWAP1 POP SWAP3 SWAP2 POP POP JUMP JUMPDEST PUSH0 PUSH2 0x51B PUSH0 NOT DUP5 PUSH1 0x8 MUL PUSH2 0x500 JUMP JUMPDEST NOT DUP1 DUP4 AND SWAP2 POP POP SWAP3 SWAP2 POP POP JUMP JUMPDEST PUSH0 PUSH2 0x533 DUP4 DUP4 PUSH2 0x50C JUMP JUMPDEST SWAP2 POP DUP3 PUSH1 0x2 MUL DUP3 OR SWAP1 POP SWAP3 SWAP2 POP POP JUMP JUMPDEST PUSH2 0x54C DUP3 PUSH2 0x306 JUMP JUMPDEST PUSH8 0xFFFFFFFFFFFFFFFF DUP2 GT ISZERO PUSH2 0x565 JUMPI PUSH2 0x564 PUSH2 0x310 JUMP JUMPDEST JUMPDEST PUSH2 0x56F DUP3 SLOAD PUSH2 0x36A JUMP JUMPDEST PUSH2 0x57A DUP3 DUP3 DUP6 PUSH2 0x4BA JUMP JUMPDEST PUSH0 PUSH1 0x20 SWAP1 POP PUSH1 0x1F DUP4 GT PUSH1 0x1 DUP2 EQ PUSH2 0x5AB JUMPI PUSH0 DUP5 ISZERO PUSH2 0x599 JUMPI DUP3 DUP8 ADD MLOAD SWAP1 POP JUMPDEST PUSH2 0x5A3 DUP6 DUP3 PUSH2 0x528 JUMP JUMPDEST DUP7 SSTORE POP PUSH2 0x60A JUMP JUMPDEST PUSH1 0x1F NOT DUP5 AND PUSH2 0x5B9 DUP7 PUSH2 0x39A JUMP JUMPDEST PUSH0 JUMPDEST DUP3 DUP2 LT ISZERO PUSH2 0x5E0 JUMPI DUP5 DUP10 ADD MLOAD DUP3 SSTORE PUSH1 0x1 DUP3 ADD SWAP2 POP PUSH1 0x20 DUP6 ADD SWAP5 POP PUSH1 0x20 DUP2 ADD SWAP1 POP PUSH2 0x5BB JUMP JUMPDEST DUP7 DUP4 LT ISZERO PUSH2 0x5FD JUMPI DUP5 DUP10 ADD MLOAD PUSH2 0x5F9 PUSH1 0x1F DUP10 AND DUP3 PUSH2 0x50C JUMP JUMPDEST DUP4 SSTORE POP JUMPDEST PUSH1 0x1 PUSH1 0x2 DUP9 MUL ADD DUP9 SSTORE POP POP POP JUMPDEST POP POP POP POP POP POP JUMP JUMPDEST PUSH2 0x32F8 DUP1 PUSH2 0x61F PUSH0 CODECOPY PUSH0 RETURN INVALID PUSH1 0x80 PUSH1 0x40 MSTORE CALLVALUE DUP1 ISZERO PUSH2 0xF JUMPI PUSH0 PUSH0 REVERT JUMPDEST POP PUSH1 0x4 CALLDATASIZE LT PUSH2 0x1A7 JUMPI PUSH0 CALLDATALOAD PUSH1 0xE0 SHR DUP1 PUSH4 0x70A08231 GT PUSH2 0xF7 JUMPI DUP1 PUSH4 0xB4B5B48F GT PUSH2 0x95 JUMPI DUP1 PUSH4 0xD5391393 GT PUSH2 0x6F JUMPI DUP1 PUSH4 0xD5391393 EQ PUSH2 0x528 JUMPI DUP1 PUSH4 0xD547741F EQ PUSH2 0x546 JUMPI DUP1 PUSH4 0xD9548E53 EQ PUSH2 0x562 JUMPI DUP1 PUSH4 0xE985E9C5 EQ PUSH2 0x592 JUMPI PUSH2 0x1A7 JUMP JUMPDEST DUP1 PUSH4 0xB4B5B48F EQ PUSH2 0x4AB JUMPI DUP1 PUSH4 0xB88D4FDE EQ PUSH2 0x4DC JUMPI DUP1 PUSH4 0xC87B56DD EQ PUSH2 0x4F8 JUMPI PUSH2 0x1A7 JUMP JUMPDEST DUP1 PUSH4 0x95D89B41 GT PUSH2 0xD1 JUMPI DUP1 PUSH4 0x95D89B41 EQ PUSH2 0x421 JUMPI DUP1 PUSH4 0xA217FDDF EQ PUSH2 0x43F JUMPI DUP1 PUSH4 0xA22CB465 EQ PUSH2 0x45D JUMPI DUP1 PUSH4 0xB09AFEC1 EQ PUSH2 0x479 JUMPI PUSH2 0x1A7 JUMP JUMPDEST DUP1 PUSH4 0x70A08231 EQ PUSH2 0x391 JUMPI DUP1 PUSH4 0x85D37430 EQ PUSH2 0x3C1 JUMPI DUP1 PUSH4 0x91D14854 EQ PUSH2 0x3F1 JUMPI PUSH2 0x1A7 JUMP JUMPDEST DUP1 PUSH4 0x2F2FF15D GT PUSH2 0x164 JUMPI DUP1 PUSH4 0x3F54C284 GT PUSH2 0x13E JUMPI DUP1 PUSH4 0x3F54C284 EQ PUSH2 0x2F9 JUMPI DUP1 PUSH4 0x42842E0E EQ PUSH2 0x315 JUMPI DUP1 PUSH4 0x4F558E79 EQ PUSH2 0x331 JUMPI DUP1 PUSH4 0x6352211E EQ PUSH2 0x361 JUMPI PUSH2 0x1A7 JUMP JUMPDEST DUP1 PUSH4 0x2F2FF15D EQ PUSH2 0x291 JUMPI DUP1 PUSH4 0x336CCBA5 EQ PUSH2 0x2AD JUMPI DUP1 PUSH4 0x36568ABE EQ PUSH2 0x2DD JUMPI PUSH2 0x1A7 JUMP JUMPDEST DUP1 PUSH4 0x1FFC9A7 EQ PUSH2 0x1AB JUMPI DUP1 PUSH4 0x6FDDE03 EQ PUSH2 0x1DB JUMPI DUP1 PUSH4 0x81812FC EQ PUSH2 0x1F9 JUMPI DUP1 PUSH4 0x95EA7B3 EQ PUSH2 0x229 JUMPI DUP1 PUSH4 0x23B872DD EQ PUSH2 0x245 JUMPI DUP1 PUSH4 0x248A9CA3 EQ PUSH2 0x261 JUMPI JUMPDEST PUSH0 PUSH0 REVERT JUMPDEST PUSH2 0x1C5 PUSH1 0x4 DUP1 CALLDATASIZE SUB DUP2 ADD SWAP1 PUSH2 0x1C0 SWAP2 SWAP1 PUSH2 0x2349 JUMP JUMPDEST PUSH2 0x5C2 JUMP JUMPDEST PUSH1 0x40 MLOAD PUSH2 0x1D2 SWAP2 SWAP1 PUSH2 0x238E JUMP JUMPDEST PUSH1 0x40 MLOAD DUP1 SWAP2 SUB SWAP1 RETURN JUMPDEST PUSH2 0x1E3 PUSH2 0x5D3 JUMP JUMPDEST PUSH1 0x40 MLOAD PUSH2 0x1F0 SWAP2 SWAP1 PUSH2 0x2417 JUMP JUMPDEST PUSH1 0x40 MLOAD DUP1 SWAP2 SUB SWAP1 RETURN JUMPDEST PUSH2 0x213 PUSH1 0x4 DUP1 CALLDATASIZE SUB DUP2 ADD SWAP1 PUSH2 0x20E SWAP2 SWAP1 PUSH2 0x246A JUMP JUMPDEST PUSH2 0x662 JUMP JUMPDEST PUSH1 0x40 MLOAD PUSH2 0x220 SWAP2 SWAP1 PUSH2 0x24D4 JUMP JUMPDEST PUSH1 0x40 MLOAD DUP1 SWAP2 SUB SWAP1 RETURN JUMPDEST PUSH2 0x243 PUSH1 0x4 DUP1 CALLDATASIZE SUB DUP2 ADD SWAP1 PUSH2 0x23E SWAP2 SWAP1 PUSH2 0x2517 JUMP JUMPDEST PUSH2 0x67D JUMP JUMPDEST STOP JUMPDEST PUSH2 0x25F PUSH1 0x4 DUP1 CALLDATASIZE SUB DUP2 ADD SWAP1 PUSH2 0x25A SWAP2 SWAP1 PUSH2 0x2555 JUMP JUMPDEST PUSH2 0x693 JUMP JUMPDEST STOP JUMPDEST PUSH2 0x27B PUSH1 0x4 DUP1 CALLDATASIZE SUB DUP2 ADD SWAP1 PUSH2 0x276 SWAP2 SWAP1 PUSH2 0x25D8 JUMP JUMPDEST PUSH2 0x792 JUMP JUMPDEST PUSH1 0x40 MLOAD PUSH2 0x288 SWAP2 SWAP1 PUSH2 0x2612 JUMP JUMPDEST PUSH1 0x40 MLOAD DUP1 SWAP2 SUB SWAP1 RETURN JUMPDEST PUSH2 0x2AB PUSH1 0x4 DUP1 CALLDATASIZE SUB DUP2 ADD SWAP1 PUSH2 0x2A6 SWAP2 SWAP1 PUSH2 0x262B JUMP JUMPDEST PUSH2 0x7AF JUMP JUMPDEST STOP JUMPDEST PUSH2 0x2C7 PUSH1 0x4 DUP1 CALLDATASIZE SUB DUP2 ADD SWAP1 PUSH2 0x2C2 SWAP2 SWAP1 PUSH2 0x246A JUMP JUMPDEST PUSH2 0x7D1 JUMP JUMPDEST PUSH1 0x40 MLOAD PUSH2 0x2D4 SWAP2 SWAP1 PUSH2 0x238E JUMP JUMPDEST PUSH1 0x40 MLOAD DUP1 SWAP2 SUB SWAP1 RETURN JUMPDEST PUSH2 0x2F7 PUSH1 0x4 DUP1 CALLDATASIZE SUB DUP2 ADD SWAP1 PUSH2 0x2F2 SWAP2 SWAP1 PUSH2 0x262B JUMP JUMPDEST PUSH2 0x933 JUMP JUMPDEST STOP JUMPDEST PUSH2 0x313 PUSH1 0x4 DUP1 CALLDATASIZE SUB DUP2 ADD SWAP1 PUSH2 0x30E SWAP2 SWAP1 PUSH2 0x27BF JUMP JUMPDEST PUSH2 0x9AE JUMP JUMPDEST STOP JUMPDEST PUSH2 0x32F PUSH1 0x4 DUP1 CALLDATASIZE SUB DUP2 ADD SWAP1 PUSH2 0x32A SWAP2 SWAP1 PUSH2 0x2555 JUMP JUMPDEST PUSH2 0xA74 JUMP JUMPDEST STOP JUMPDEST PUSH2 0x34B PUSH1 0x4 DUP1 CALLDATASIZE SUB DUP2 ADD SWAP1 PUSH2 0x346 SWAP2 SWAP1 PUSH2 0x246A JUMP JUMPDEST PUSH2 0xA93 JUMP JUMPDEST PUSH1 0x40 MLOAD PUSH2 0x358 SWAP2 SWAP1 PUSH2 0x238E JUMP JUMPDEST PUSH1 0x40 MLOAD DUP1 SWAP2 SUB SWAP1 RETURN JUMPDEST PUSH2 0x37B PUSH1 0x4 DUP1 CALLDATASIZE SUB DUP2 ADD SWAP1 PUSH2 0x376 SWAP2 SWAP1 PUSH2 0x246A JUMP JUMPDEST PUSH2 0xB1E JUMP JUMPDEST PUSH1 0x40 MLOAD PUSH2 0x388 SWAP2 SWAP1 PUSH2 0x24D4 JUMP JUMPDEST PUSH1 0x40 MLOAD DUP1 SWAP2 SUB SWAP1 RETURN JUMPDEST PUSH2 0x3AB PUSH1 0x4 DUP1 CALLDATASIZE SUB DUP2 ADD SWAP1 PUSH2 0x3A6 SWAP2 SWAP1 PUSH2 0x282B JUMP JUMPDEST PUSH2 0xB2F JUMP JUMPDEST PUSH1 0x40 MLOAD PUSH2 0x3B8 SWAP2 SWAP1 PUSH2 0x2865 JUMP JUMPDEST PUSH1 0x40 MLOAD DUP1 SWAP2 SUB SWAP1 RETURN JUMPDEST PUSH2 0x3DB PUSH1 0x4 DUP1 CALLDATASIZE SUB DUP2 ADD SWAP1 PUSH2 0x3D6 SWAP2 SWAP1 PUSH2 0x287E JUMP JUMPDEST PUSH2 0xBE5 JUMP JUMPDEST PUSH1 0x40 MLOAD PUSH2 0x3E8 SWAP2 SWAP1 PUSH2 0x2865 JUMP JUMPDEST PUSH1 0x40 MLOAD DUP1 SWAP2 SUB SWAP1 RETURN JUMPDEST PUSH2 0x40B PUSH1 0x4 DUP1 CALLDATASIZE SUB DUP2 ADD SWAP1 PUSH2 0x406 SWAP2 SWAP1 PUSH2 0x262B JUMP JUMPDEST PUSH2 0xCF5 JUMP JUMPDEST PUSH1 0x40 MLOAD PUSH2 0x418 SWAP2 SWAP1 PUSH2 0x238E JUMP JUMPDEST PUSH1 0x40 MLOAD DUP1 SWAP2 SUB SWAP1 RETURN JUMPDEST PUSH2 0x429 PUSH2 0xD59 JUMP JUMPDEST PUSH1 0x40 MLOAD PUSH2 0x436 SWAP2 SWAP1 PUSH2 0x2417 JUMP JUMPDEST PUSH1 0x40 MLOAD DUP1 SWAP2 SUB SWAP1 RETURN JUMPDEST PUSH2 0x447 PUSH2 0xDE9 JUMP JUMPDEST PUSH1 0x40 MLOAD PUSH2 0x454 SWAP2 SWAP1 PUSH2 0x2612 JUMP JUMPDEST PUSH1 0x40 MLOAD DUP1 SWAP2 SUB SWAP1 RETURN JUMPDEST PUSH2 0x477 PUSH1 0x4 DUP1 CALLDATASIZE SUB DUP2 ADD SWAP1 PUSH2 0x472 SWAP2 SWAP1 PUSH2 0x291A JUMP JUMPDEST PUSH2 0xDEF JUMP JUMPDEST STOP JUMPDEST PUSH2 0x493 PUSH1 0x4 DUP1 CALLDATASIZE SUB DUP2 ADD SWAP1 PUSH2 0x48E SWAP2 SWAP1 PUSH2 0x246A JUMP JUMPDEST PUSH2 0xE05 JUMP JUMPDEST PUSH1 0x40 MLOAD PUSH2 0x4A2 SWAP4 SWAP3 SWAP2 SWAP1 PUSH2 0x2AC6 JUMP JUMPDEST PUSH1 0x40 MLOAD DUP1 SWAP2 SUB SWAP1 RETURN JUMPDEST PUSH2 0x4C5 PUSH1 0x4 DUP1 CALLDATASIZE SUB DUP2 ADD SWAP1 PUSH2 0x4C0 SWAP2 SWAP1 PUSH2 0x246A JUMP JUMPDEST PUSH2 0xFEC JUMP JUMPDEST PUSH1 0x40 MLOAD PUSH2 0x4D3 SWAP3 SWAP2 SWAP1 PUSH2 0x2B09 JUMP JUMPDEST PUSH1 0x40 MLOAD DUP1 SWAP2 SUB SWAP1 RETURN JUMPDEST PUSH2 0x4F6 PUSH1 0x4 DUP1 CALLDATASIZE SUB DUP2 ADD SWAP1 PUSH2 0x4F1 SWAP2 SWAP1 PUSH2 0x2BD5 JUMP JUMPDEST PUSH2 0x1092 JUMP JUMPDEST STOP JUMPDEST PUSH2 0x512 PUSH1 0x4 DUP1 CALLDATASIZE SUB DUP2 ADD SWAP1 PUSH2 0x50D SWAP2 SWAP1 PUSH2 0x246A JUMP JUMPDEST PUSH2 0x10B7 JUMP JUMPDEST PUSH1 0x40 MLOAD PUSH2 0x51F SWAP2 SWAP1 PUSH2 0x2417 JUMP JUMPDEST PUSH1 0x40 MLOAD DUP1 SWAP2 SUB SWAP1 RETURN JUMPDEST PUSH2 0x530 PUSH2 0x111D JUMP JUMPDEST PUSH1 0x40 MLOAD PUSH2 0x53D SWAP2 SWAP1 PUSH2 0x2612 JUMP JUMPDEST PUSH1 0x40 MLOAD DUP1 SWAP2 SUB SWAP1 RETURN JUMPDEST PUSH2 0x560 PUSH1 0x4 DUP1 CALLDATASIZE SUB DUP2 ADD SWAP1 PUSH2 0x55B SWAP2 SWAP1 PUSH2 0x262B JUMP JUMPDEST PUSH2 0x1141 JUMP JUMPDEST STOP JUMPDEST PUSH2 0x57C PUSH1 0x4 DUP1 CALLDATASIZE SUB DUP2 ADD SWAP1 PUSH2 0x577 SWAP2 SWAP1 PUSH2 0x246A JUMP JUMPDEST PUSH2 0x1163 JUMP JUMPDEST PUSH1 0x40 MLOAD PUSH2 0x589 SWAP2 SWAP1 PUSH2 0x238E JUMP JUMPDEST PUSH1 0x40 MLOAD DUP1 SWAP2 SUB SWAP1 RETURN JUMPDEST PUSH2 0x5AC PUSH1 0x4 DUP1 CALLDATASIZE SUB DUP2 ADD SWAP1 PUSH2 0x5A7 SWAP2 SWAP1 PUSH2 0x2C55 JUMP JUMPDEST PUSH2 0x1182 JUMP JUMPDEST PUSH1 0x40 MLOAD PUSH2 0x5B9 SWAP2 SWAP1 PUSH2 0x238E JUMP JUMPDEST PUSH1 0x40 MLOAD DUP1 SWAP2 SUB SWAP1 RETURN JUMPDEST PUSH0 PUSH2 0x5CC DUP3 PUSH2 0x1210 JUMP JUMPDEST SWAP1 POP SWAP2 SWAP1 POP JUMP JUMPDEST PUSH1 0x60 PUSH0 DUP1 SLOAD PUSH2 0x5E1 SWAP1 PUSH2 0x2CC0 JUMP JUMPDEST DUP1 PUSH1 0x1F ADD PUSH1 0x20 DUP1 SWAP2 DIV MUL PUSH1 0x20 ADD PUSH1 0x40 MLOAD SWAP1 DUP2 ADD PUSH1 0x40 MSTORE DUP1 SWAP3 SWAP2 SWAP1 DUP2 DUP2 MSTORE PUSH1 0x20 ADD DUP3 DUP1 SLOAD PUSH2 0x60D SWAP1 PUSH2 0x2CC0 JUMP JUMPDEST DUP1 ISZERO PUSH2 0x658 JUMPI DUP1 PUSH1 0x1F LT PUSH2 0x62F JUMPI PUSH2 0x100 DUP1 DUP4 SLOAD DIV MUL DUP4 MSTORE SWAP2 PUSH1 0x20 ADD SWAP2 PUSH2 0x658 JUMP JUMPDEST DUP3 ADD SWAP2 SWAP1 PUSH0 MSTORE PUSH1 0x20 PUSH0 KECCAK256 SWAP1 JUMPDEST DUP2 SLOAD DUP2 MSTORE SWAP1 PUSH1 0x1 ADD SWAP1 PUSH1 0x20 ADD DUP1 DUP4 GT PUSH2 0x63B JUMPI DUP3 SWAP1 SUB PUSH1 0x1F AND DUP3 ADD SWAP2 JUMPDEST POP POP POP POP POP SWAP1 POP SWAP1 JUMP JUMPDEST PUSH0 PUSH2 0x66C DUP3 PUSH2 0x1289 JUMP JUMPDEST POP PUSH2 0x676 DUP3 PUSH2 0x130F JUMP JUMPDEST SWAP1 POP SWAP2 SWAP1 POP JUMP JUMPDEST PUSH2 0x68F DUP3 DUP3 PUSH2 0x68A PUSH2 0x1348 JUMP JUMPDEST PUSH2 0x134F JUMP JUMPDEST POP POP JUMP JUMPDEST PUSH0 PUSH20 0xFFFFFFFFFFFFFFFFFFFFFFFFFFFFFFFFFFFFFFFF AND DUP3 PUSH20 0xFFFFFFFFFFFFFFFFFFFFFFFFFFFFFFFFFFFFFFFF AND SUB PUSH2 0x703 JUMPI PUSH0 PUSH1 0x40 MLOAD PUSH32 0x64A0AE9200000000000000000000000000000000000000000000000000000000 DUP2 MSTORE PUSH1 0x4 ADD PUSH2 0x6FA SWAP2 SWAP1 PUSH2 0x24D4 JUMP JUMPDEST PUSH1 0x40 MLOAD DUP1 SWAP2 SUB SWAP1 REVERT JUMPDEST PUSH0 PUSH2 0x716 DUP4 DUP4 PUSH2 0x711 PUSH2 0x1348 JUMP JUMPDEST PUSH2 0x1361 JUMP JUMPDEST SWAP1 POP DUP4 PUSH20 0xFFFFFFFFFFFFFFFFFFFFFFFFFFFFFFFFFFFFFFFF AND DUP2 PUSH20 0xFFFFFFFFFFFFFFFFFFFFFFFFFFFFFFFFFFFFFFFF AND EQ PUSH2 0x78C JUMPI DUP4 DUP3 DUP3 PUSH1 0x40 MLOAD PUSH32 0x64283D7B00000000000000000000000000000000000000000000000000000000 DUP2 MSTORE PUSH1 0x4 ADD PUSH2 0x783 SWAP4 SWAP3 SWAP2 SWAP1 PUSH2 0x2CF0 JUMP JUMPDEST PUSH1 0x40 MLOAD DUP1 SWAP2 SUB SWAP1 REVERT JUMPDEST POP POP POP POP JUMP JUMPDEST PUSH0 PUSH1 0x6 PUSH0 DUP4 DUP2 MSTORE PUSH1 0x20 ADD SWAP1 DUP2 MSTORE PUSH1 0x20 ADD PUSH0 KECCAK256 PUSH1 0x1 ADD SLOAD SWAP1 POP SWAP2 SWAP1 POP JUMP JUMPDEST PUSH2 0x7B8 DUP3 PUSH2 0x792 JUMP JUMPDEST PUSH2 0x7C1 DUP2 PUSH2 0x156C JUMP JUMPDEST PUSH2 0x7CB DUP4 DUP4 PUSH2 0x1580 JUMP JUMPDEST POP POP POP POP JUMP JUMPDEST PUSH0 PUSH0 PUSH1 0x8 PUSH0 DUP5 DUP2 MSTORE PUSH1 0x20 ADD SWAP1 DUP2 MSTORE PUSH1 0x20 ADD PUSH0 KECCAK256 PUSH1 0x1 ADD PUSH1 0x1 PUSH1 0x8 PUSH0 DUP7 DUP2 MSTORE PUSH1 0x20 ADD SWAP1 DUP2 MSTORE PUSH1 0x20 ADD PUSH0 KECCAK256 PUSH1 0x1 ADD DUP1 SLOAD SWAP1 POP PUSH2 0x80B SWAP2 SWAP1 PUSH2 0x2D52 JUMP JUMPDEST DUP2 SLOAD DUP2 LT PUSH2 0x81C JUMPI PUSH2 0x81B PUSH2 0x2D85 JUMP JUMPDEST JUMPDEST SWAP1 PUSH0 MSTORE PUSH1 0x20 PUSH0 KECCAK256 SWAP1 PUSH1 0x3 MUL ADD PUSH1 0x40 MLOAD DUP1 PUSH1 0x60 ADD PUSH1 0x40 MSTORE SWAP1 DUP2 PUSH0 DUP3 ADD DUP1 SLOAD PUSH2 0x842 SWAP1 PUSH2 0x2CC0 JUMP JUMPDEST DUP1 PUSH1 0x1F ADD PUSH1 0x20 DUP1 SWAP2 DIV MUL PUSH1 0x20 ADD PUSH1 0x40 MLOAD SWAP1 DUP2 ADD PUSH1 0x40 MSTORE DUP1 SWAP3 SWAP2 SWAP1 DUP2 DUP2 MSTORE PUSH1 0x20 ADD DUP3 DUP1 SLOAD PUSH2 0x86E SWAP1 PUSH2 0x2CC0 JUMP JUMPDEST DUP1 ISZERO PUSH2 0x8B9 JUMPI DUP1 PUSH1 0x1F LT PUSH2 0x890 JUMPI PUSH2 0x100 DUP1 DUP4 SLOAD DIV MUL DUP4 MSTORE SWAP2 PUSH1 0x20 ADD SWAP2 PUSH2 0x8B9 JUMP JUMPDEST DUP3 ADD SWAP2 SWAP1 PUSH0 MSTORE PUSH1 0x20 PUSH0 KECCAK256 SWAP1 JUMPDEST DUP2 SLOAD DUP2 MSTORE SWAP1 PUSH1 0x1 ADD SWAP1 PUSH1 0x20 ADD DUP1 DUP4 GT PUSH2 0x89C JUMPI DUP3 SWAP1 SUB PUSH1 0x1F AND DUP3 ADD SWAP2 JUMPDEST POP POP POP POP POP DUP2 MSTORE PUSH1 0x20 ADD PUSH1 0x1 DUP3 ADD SLOAD DUP2 MSTORE PUSH1 0x20 ADD PUSH1 0x2 DUP3 ADD PUSH0 SWAP1 SLOAD SWAP1 PUSH2 0x100 EXP SWAP1 DIV PUSH1 0xFF AND ISZERO ISZERO ISZERO ISZERO DUP2 MSTORE POP POP SWAP1 POP DUP1 PUSH1 0x40 ADD MLOAD ISZERO PUSH2 0x92D JUMPI PUSH1 0x40 MLOAD PUSH32 0x8C379A000000000000000000000000000000000000000000000000000000000 DUP2 MSTORE PUSH1 0x4 ADD PUSH2 0x924 SWAP1 PUSH2 0x2DFC JUMP JUMPDEST PUSH1 0x40 MLOAD DUP1 SWAP2 SUB SWAP1 REVERT JUMPDEST POP SWAP2 SWAP1 POP JUMP JUMPDEST PUSH2 0x93B PUSH2 0x1348 JUMP JUMPDEST PUSH20 0xFFFFFFFFFFFFFFFFFFFFFFFFFFFFFFFFFFFFFFFF AND DUP2 PUSH20 0xFFFFFFFFFFFFFFFFFFFFFFFFFFFFFFFFFFFFFFFF AND EQ PUSH2 0x99F JUMPI PUSH1 0x40 MLOAD PUSH32 0x6697B23200000000000000000000000000000000000000000000000000000000 DUP2 MSTORE PUSH1 0x4 ADD PUSH1 0x40 MLOAD DUP1 SWAP2 SUB SWAP1 REVERT JUMPDEST PUSH2 0x9A9 DUP3 DUP3 PUSH2 0x166A JUMP JUMPDEST POP POP POP JUMP JUMPDEST PUSH32 0x9F2DF0FED2C77648DE5860A4CC508CD0818C85B8B8A1AB4CEEEF8D981C8956A6 PUSH2 0x9D8 DUP2 PUSH2 0x156C JUMP JUMPDEST PUSH1 0x8 PUSH0 DUP6 DUP2 MSTORE PUSH1 0x20 ADD SWAP1 DUP2 MSTORE PUSH1 0x20 ADD PUSH0 KECCAK256 PUSH1 0x1 ADD PUSH1 0x40 MLOAD DUP1 PUSH1 0x60 ADD PUSH1 0x40 MSTORE DUP1 DUP6 DUP2 MSTORE PUSH1 0x20 ADD TIMESTAMP DUP2 MSTORE PUSH1 0x20 ADD DUP5 ISZERO ISZERO DUP2 MSTORE POP SWAP1 DUP1 PUSH1 0x1 DUP2 SLOAD ADD DUP1 DUP3 SSTORE DUP1 SWAP2 POP POP PUSH1 0x1 SWAP1 SUB SWAP1 PUSH0 MSTORE PUSH1 0x20 PUSH0 KECCAK256 SWAP1 PUSH1 0x3 MUL ADD PUSH0 SWAP1 SWAP2 SWAP1 SWAP2 SWAP1 SWAP2 POP PUSH0 DUP3 ADD MLOAD DUP2 PUSH0 ADD SWAP1 DUP2 PUSH2 0xA42 SWAP2 SWAP1 PUSH2 0x2FBA JUMP JUMPDEST POP PUSH1 0x20 DUP3 ADD MLOAD DUP2 PUSH1 0x1 ADD SSTORE PUSH1 0x40 DUP3 ADD MLOAD DUP2 PUSH1 0x2 ADD PUSH0 PUSH2 0x100 EXP DUP2 SLOAD DUP2 PUSH1 0xFF MUL NOT AND SWAP1 DUP4 ISZERO ISZERO MUL OR SWAP1 SSTORE POP POP POP POP POP POP POP JUMP JUMPDEST PUSH2 0xA8E DUP4 DUP4 DUP4 PUSH1 0x40 MLOAD DUP1 PUSH1 0x20 ADD PUSH1 0x40 MSTORE DUP1 PUSH0 DUP2 MSTORE POP PUSH2 0x1092 JUMP JUMPDEST POP POP POP JUMP JUMPDEST PUSH0 ADDRESS PUSH20 0xFFFFFFFFFFFFFFFFFFFFFFFFFFFFFFFFFFFFFFFF AND PUSH4 0x6352211E DUP4 PUSH1 0x40 MLOAD DUP3 PUSH4 0xFFFFFFFF AND PUSH1 0xE0 SHL DUP2 MSTORE PUSH1 0x4 ADD PUSH2 0xACD SWAP2 SWAP1 PUSH2 0x2865 JUMP JUMPDEST PUSH1 0x20 PUSH1 0x40 MLOAD DUP1 DUP4 SUB DUP2 DUP7 GAS STATICCALL SWAP3 POP POP POP DUP1 ISZERO PUSH2 0xB07 JUMPI POP PUSH1 0x40 MLOAD RETURNDATASIZE PUSH1 0x1F NOT PUSH1 0x1F DUP3 ADD AND DUP3 ADD DUP1 PUSH1 0x40 MSTORE POP DUP2 ADD SWAP1 PUSH2 0xB04 SWAP2 SWAP1 PUSH2 0x309D JUMP JUMPDEST PUSH1 0x1 JUMPDEST PUSH2 0xB13 JUMPI PUSH0 SWAP1 POP PUSH2 0xB19 JUMP JUMPDEST PUSH1 0x1 SWAP2 POP POP JUMPDEST SWAP2 SWAP1 POP JUMP JUMPDEST PUSH0 PUSH2 0xB28 DUP3 PUSH2 0x1289 JUMP JUMPDEST SWAP1 POP SWAP2 SWAP1 POP JUMP JUMPDEST PUSH0 PUSH0 PUSH20 0xFFFFFFFFFFFFFFFFFFFFFFFFFFFFFFFFFFFFFFFF AND DUP3 PUSH20 0xFFFFFFFFFFFFFFFFFFFFFFFFFFFFFFFFFFFFFFFF AND SUB PUSH2 0xBA0 JUMPI PUSH0 PUSH1 0x40 MLOAD PUSH32 0x89C62B6400000000000000000000000000000000000000000000000000000000 DUP2 MSTORE PUSH1 0x4 ADD PUSH2 0xB97 SWAP2 SWAP1 PUSH2 0x24D4 JUMP JUMPDEST PUSH1 0x40 MLOAD DUP1 SWAP2 SUB SWAP1 REVERT JUMPDEST PUSH1 0x3 PUSH0 DUP4 PUSH20 0xFFFFFFFFFFFFFFFFFFFFFFFFFFFFFFFFFFFFFFFF AND PUSH20 0xFFFFFFFFFFFFFFFFFFFFFFFFFFFFFFFFFFFFFFFF AND DUP2 MSTORE PUSH1 0x20 ADD SWAP1 DUP2 MSTORE PUSH1 0x20 ADD PUSH0 KECCAK256 SLOAD SWAP1 POP SWAP2 SWAP1 POP JUMP JUMPDEST PUSH0 PUSH32 0x9F2DF0FED2C77648DE5860A4CC508CD0818C85B8B8A1AB4CEEEF8D981C8956A6 PUSH2 0xC10 DUP2 PUSH2 0x156C JUMP JUMPDEST PUSH0 PUSH1 0x7 PUSH0 DUP2 SLOAD DUP1 SWAP3 SWAP2 SWAP1 PUSH2 0xC23 SWAP1 PUSH2 0x30C8 JUMP JUMPDEST SWAP2 SWAP1 POP SSTORE SWAP1 POP PUSH2 0xC33 DUP8 DUP3 PUSH2 0x1754 JUMP JUMPDEST PUSH0 PUSH1 0x8 PUSH0 DUP4 DUP2 MSTORE PUSH1 0x20 ADD SWAP1 DUP2 MSTORE PUSH1 0x20 ADD PUSH0 KECCAK256 SWAP1 POP DUP7 DUP2 PUSH0 ADD SWAP1 DUP2 PUSH2 0xC57 SWAP2 SWAP1 PUSH2 0x2FBA JUMP JUMPDEST POP DUP6 DUP2 PUSH1 0x2 ADD DUP2 SWAP1 SSTORE POP DUP1 PUSH1 0x1 ADD PUSH1 0x40 MLOAD DUP1 PUSH1 0x60 ADD PUSH1 0x40 MSTORE DUP1 DUP8 DUP2 MSTORE PUSH1 0x20 ADD TIMESTAMP DUP2 MSTORE PUSH1 0x20 ADD PUSH0 ISZERO ISZERO DUP2 MSTORE POP SWAP1 DUP1 PUSH1 0x1 DUP2 SLOAD ADD DUP1 DUP3 SSTORE DUP1 SWAP2 POP POP PUSH1 0x1 SWAP1 SUB SWAP1 PUSH0 MSTORE PUSH1 0x20 PUSH0 KECCAK256 SWAP1 PUSH1 0x3 MUL ADD PUSH0 SWAP1 SWAP2 SWAP1 SWAP2 SWAP1 SWAP2 POP PUSH0 DUP3 ADD MLOAD DUP2 PUSH0 ADD SWAP1 DUP2 PUSH2 0xCBB SWAP2 SWAP1 PUSH2 0x2FBA JUMP JUMPDEST POP PUSH1 0x20 DUP3 ADD MLOAD DUP2 PUSH1 0x1 ADD SSTORE PUSH1 0x40 DUP3 ADD MLOAD DUP2 PUSH1 0x2 ADD PUSH0 PUSH2 0x100 EXP DUP2 SLOAD DUP2 PUSH1 0xFF MUL NOT AND SWAP1 DUP4 ISZERO ISZERO MUL OR SWAP1 SSTORE POP POP POP DUP2 SWAP4 POP POP POP POP SWAP5 SWAP4 POP POP POP POP JUMP JUMPDEST PUSH0 PUSH1 0x6 PUSH0 DUP5 DUP2 MSTORE PUSH1 0x20 ADD SWAP1 DUP2 MSTORE PUSH1 0x20 ADD PUSH0 KECCAK256 PUSH0 ADD PUSH0 DUP4 PUSH20 0xFFFFFFFFFFFFFFFFFFFFFFFFFFFFFFFFFFFFFFFF AND PUSH20 0xFFFFFFFFFFFFFFFFFFFFFFFFFFFFFFFFFFFFFFFF AND DUP2 MSTORE PUSH1 0x20 ADD SWAP1 DUP2 MSTORE PUSH1 0x20 ADD PUSH0 KECCAK256 PUSH0 SWAP1 SLOAD SWAP1 PUSH2 0x100 EXP SWAP1 DIV PUSH1 0xFF AND SWAP1 POP SWAP3 SWAP2 POP POP JUMP JUMPDEST PUSH1 0x60 PUSH1 0x1 DUP1 SLOAD PUSH2 0xD68 SWAP1 PUSH2 0x2CC0 JUMP JUMPDEST DUP1 PUSH1 0x1F ADD PUSH1 0x20 DUP1 SWAP2 DIV MUL PUSH1 0x20 ADD PUSH1 0x40 MLOAD SWAP1 DUP2 ADD PUSH1 0x40 MSTORE DUP1 SWAP3 SWAP2 SWAP1 DUP2 DUP2 MSTORE PUSH1 0x20 ADD DUP3 DUP1 SLOAD PUSH2 0xD94 SWAP1 PUSH2 0x2CC0 JUMP JUMPDEST DUP1 ISZERO PUSH2 0xDDF JUMPI DUP1 PUSH1 0x1F LT PUSH2 0xDB6 JUMPI PUSH2 0x100 DUP1 DUP4 SLOAD DIV MUL DUP4 MSTORE SWAP2 PUSH1 0x20 ADD SWAP2 PUSH2 0xDDF JUMP JUMPDEST DUP3 ADD SWAP2 SWAP1 PUSH0 MSTORE PUSH1 0x20 PUSH0 KECCAK256 SWAP1 JUMPDEST DUP2 SLOAD DUP2 MSTORE SWAP1 PUSH1 0x1 ADD SWAP1 PUSH1 0x20 ADD DUP1 DUP4 GT PUSH2 0xDC2 JUMPI DUP3 SWAP1 SUB PUSH1 0x1F AND DUP3 ADD SWAP2 JUMPDEST POP POP POP POP POP SWAP1 POP SWAP1 JUMP JUMPDEST PUSH0 PUSH0 SHL DUP2 JUMP JUMPDEST PUSH2 0xE01 PUSH2 0xDFA PUSH2 0x1348 JUMP JUMPDEST DUP4 DUP4 PUSH2 0x1771 JUMP JUMPDEST POP POP JUMP JUMPDEST PUSH1 0x60 DUP1 PUSH0 PUSH0 PUSH1 0x8 PUSH0 DUP7 DUP2 MSTORE PUSH1 0x20 ADD SWAP1 DUP2 MSTORE PUSH1 0x20 ADD PUSH0 KECCAK256 PUSH1 0x40 MLOAD DUP1 PUSH1 0x60 ADD PUSH1 0x40 MSTORE SWAP1 DUP2 PUSH0 DUP3 ADD DUP1 SLOAD PUSH2 0xE35 SWAP1 PUSH2 0x2CC0 JUMP JUMPDEST DUP1 PUSH1 0x1F ADD PUSH1 0x20 DUP1 SWAP2 DIV MUL PUSH1 0x20 ADD PUSH1 0x40 MLOAD SWAP1 DUP2 ADD PUSH1 0x40 MSTORE DUP1 SWAP3 SWAP2 SWAP1 DUP2 DUP2 MSTORE PUSH1 0x20 ADD DUP3 DUP1 SLOAD PUSH2 0xE61 SWAP1 PUSH2 0x2CC0 JUMP JUMPDEST DUP1 ISZERO PUSH2 0xEAC JUMPI DUP1 PUSH1 0x1F LT PUSH2 0xE83 JUMPI PUSH2 0x100 DUP1 DUP4 SLOAD DIV MUL DUP4 MSTORE SWAP2 PUSH1 0x20 ADD SWAP2 PUSH2 0xEAC JUMP JUMPDEST DUP3 ADD SWAP2 SWAP1 PUSH0 MSTORE PUSH1 0x20 PUSH0 KECCAK256 SWAP1 JUMPDEST DUP2 SLOAD DUP2 MSTORE SWAP1 PUSH1 0x1 ADD SWAP1 PUSH1 0x20 ADD DUP1 DUP4 GT PUSH2 0xE8F JUMPI DUP3 SWAP1 SUB PUSH1 0x1F AND DUP3 ADD SWAP2 JUMPDEST POP POP POP POP POP DUP2 MSTORE PUSH1 0x20 ADD PUSH1 0x1 DUP3 ADD DUP1 SLOAD DUP1 PUSH1 0x20 MUL PUSH1 0x20 ADD PUSH1 0x40 MLOAD SWAP1 DUP2 ADD PUSH1 0x40 MSTORE DUP1 SWAP3 SWAP2 SWAP1 DUP2 DUP2 MSTORE PUSH1 0x20 ADD PUSH0 SWAP1 JUMPDEST DUP3 DUP3 LT ISZERO PUSH2 0xFBC JUMPI DUP4 DUP3 SWAP1 PUSH0 MSTORE PUSH1 0x20 PUSH0 KECCAK256 SWAP1 PUSH1 0x3 MUL ADD PUSH1 0x40 MLOAD DUP1 PUSH1 0x60 ADD PUSH1 0x40 MSTORE SWAP1 DUP2 PUSH0 DUP3 ADD DUP1 SLOAD PUSH2 0xF09 SWAP1 PUSH2 0x2CC0 JUMP JUMPDEST DUP1 PUSH1 0x1F ADD PUSH1 0x20 DUP1 SWAP2 DIV MUL PUSH1 0x20 ADD PUSH1 0x40 MLOAD SWAP1 DUP2 ADD PUSH1 0x40 MSTORE DUP1 SWAP3 SWAP2 SWAP1 DUP2 DUP2 MSTORE PUSH1 0x20 ADD DUP3 DUP1 SLOAD PUSH2 0xF35 SWAP1 PUSH2 0x2CC0 JUMP JUMPDEST DUP1 ISZERO PUSH2 0xF80 JUMPI DUP1 PUSH1 0x1F LT PUSH2 0xF57 JUMPI PUSH2 0x100 DUP1 DUP4 SLOAD DIV MUL DUP4 MSTORE SWAP2 PUSH1 0x20 ADD SWAP2 PUSH2 0xF80 JUMP JUMPDEST DUP3 ADD SWAP2 SWAP1 PUSH0 MSTORE PUSH1 0x20 PUSH0 KECCAK256 SWAP1 JUMPDEST DUP2 SLOAD DUP2 MSTORE SWAP1 PUSH1 0x1 ADD SWAP1 PUSH1 0x20 ADD DUP1 DUP4 GT PUSH2 0xF63 JUMPI DUP3 SWAP1 SUB PUSH1 0x1F AND DUP3 ADD SWAP2 JUMPDEST POP POP POP POP POP DUP2 MSTORE PUSH1 0x20 ADD PUSH1 0x1 DUP3 ADD SLOAD DUP2 MSTORE PUSH1 0x20 ADD PUSH1 0x2 DUP3 ADD PUSH0 SWAP1 SLOAD SWAP1 PUSH2 0x100 EXP SWAP1 DIV PUSH1 0xFF AND ISZERO ISZERO ISZERO ISZERO DUP2 MSTORE POP POP DUP2 MSTORE PUSH1 0x20 ADD SWAP1 PUSH1 0x1 ADD SWAP1 PUSH2 0xED9 JUMP JUMPDEST POP POP POP POP DUP2 MSTORE PUSH1 0x20 ADD PUSH1 0x2 DUP3 ADD SLOAD DUP2 MSTORE POP POP SWAP1 POP DUP1 PUSH0 ADD MLOAD DUP2 PUSH1 0x20 ADD MLOAD DUP3 PUSH1 0x40 ADD MLOAD SWAP4 POP SWAP4 POP SWAP4 POP POP SWAP2 SWAP4 SWAP1 SWAP3 POP JUMP JUMPDEST PUSH1 0x8 PUSH1 0x20 MSTORE DUP1 PUSH0 MSTORE PUSH1 0x40 PUSH0 KECCAK256 PUSH0 SWAP2 POP SWAP1 POP DUP1 PUSH0 ADD DUP1 SLOAD PUSH2 0x100B SWAP1 PUSH2 0x2CC0 JUMP JUMPDEST DUP1 PUSH1 0x1F ADD PUSH1 0x20 DUP1 SWAP2 DIV MUL PUSH1 0x20 ADD PUSH1 0x40 MLOAD SWAP1 DUP2 ADD PUSH1 0x40 MSTORE DUP1 SWAP3 SWAP2 SWAP1 DUP2 DUP2 MSTORE PUSH1 0x20 ADD DUP3 DUP1 SLOAD PUSH2 0x1037 SWAP1 PUSH2 0x2CC0 JUMP JUMPDEST DUP1 ISZERO PUSH2 0x1082 JUMPI DUP1 PUSH1 0x1F LT PUSH2 0x1059 JUMPI PUSH2 0x100 DUP1 DUP4 SLOAD DIV MUL DUP4 MSTORE SWAP2 PUSH1 0x20 ADD SWAP2 PUSH2 0x1082 JUMP JUMPDEST DUP3 ADD SWAP2 SWAP1 PUSH0 MSTORE PUSH1 0x20 PUSH0 KECCAK256 SWAP1 JUMPDEST DUP2 SLOAD DUP2 MSTORE SWAP1 PUSH1 0x1 ADD SWAP1 PUSH1 0x20 ADD DUP1 DUP4 GT PUSH2 0x1065 JUMPI DUP3 SWAP1 SUB PUSH1 0x1F AND DUP3 ADD SWAP2 JUMPDEST POP POP POP POP POP SWAP1 DUP1 PUSH1 0x2 ADD SLOAD SWAP1 POP DUP3 JUMP JUMPDEST PUSH2 0x109D DUP5 DUP5 DUP5 PUSH2 0x693 JUMP JUMPDEST PUSH2 0x10B1 PUSH2 0x10A8 PUSH2 0x1348 JUMP JUMPDEST DUP6 DUP6 DUP6 DUP6 PUSH2 0x18DA JUMP JUMPDEST POP POP POP POP JUMP JUMPDEST PUSH1 0x60 PUSH2 0x10C2 DUP3 PUSH2 0x1289 JUMP JUMPDEST POP PUSH0 PUSH2 0x10CC PUSH2 0x1A86 JUMP JUMPDEST SWAP1 POP PUSH0 DUP2 MLOAD GT PUSH2 0x10EA JUMPI PUSH1 0x40 MLOAD DUP1 PUSH1 0x20 ADD PUSH1 0x40 MSTORE DUP1 PUSH0 DUP2 MSTORE POP PUSH2 0x1115 JUMP JUMPDEST DUP1 PUSH2 0x10F4 DUP5 PUSH2 0x1A9C JUMP JUMPDEST PUSH1 0x40 MLOAD PUSH1 0x20 ADD PUSH2 0x1105 SWAP3 SWAP2 SWAP1 PUSH2 0x3149 JUMP JUMPDEST PUSH1 0x40 MLOAD PUSH1 0x20 DUP2 DUP4 SUB SUB DUP2 MSTORE SWAP1 PUSH1 0x40 MSTORE JUMPDEST SWAP2 POP POP SWAP2 SWAP1 POP JUMP JUMPDEST PUSH32 0x9F2DF0FED2C77648DE5860A4CC508CD0818C85B8B8A1AB4CEEEF8D981C8956A6 DUP2 JUMP JUMPDEST PUSH2 0x114A DUP3 PUSH2 0x792 JUMP JUMPDEST PUSH2 0x1153 DUP2 PUSH2 0x156C JUMP JUMPDEST PUSH2 0x115D DUP4 DUP4 PUSH2 0x166A JUMP JUMPDEST POP POP POP POP JUMP JUMPDEST PUSH0 PUSH1 0x8 PUSH0 DUP4 DUP2 MSTORE PUSH1 0x20 ADD SWAP1 DUP2 MSTORE PUSH1 0x20 ADD PUSH0 KECCAK256 PUSH1 0x2 ADD SLOAD TIMESTAMP GT SWAP1 POP SWAP2 SWAP1 POP JUMP JUMPDEST PUSH0 PUSH1 0x5 PUSH0 DUP5 PUSH20 0xFFFFFFFFFFFFFFFFFFFFFFFFFFFFFFFFFFFFFFFF AND PUSH20 0xFFFFFFFFFFFFFFFFFFFFFFFFFFFFFFFFFFFFFFFF AND DUP2 MSTORE PUSH1 0x20 ADD SWAP1 DUP2 MSTORE PUSH1 0x20 ADD PUSH0 KECCAK256 PUSH0 DUP4 PUSH20 0xFFFFFFFFFFFFFFFFFFFFFFFFFFFFFFFFFFFFFFFF AND PUSH20 0xFFFFFFFFFFFFFFFFFFFFFFFFFFFFFFFFFFFFFFFF AND DUP2 MSTORE PUSH1 0x20 ADD SWAP1 DUP2 MSTORE PUSH1 0x20 ADD PUSH0 KECCAK256 PUSH0 SWAP1 SLOAD SWAP1 PUSH2 0x100 EXP SWAP1 DIV PUSH1 0xFF AND SWAP1 POP SWAP3 SWAP2 POP POP JUMP JUMPDEST PUSH0 PUSH32 0x7965DB0B00000000000000000000000000000000000000000000000000000000 PUSH28 0xFFFFFFFFFFFFFFFFFFFFFFFFFFFFFFFFFFFFFFFFFFFFFFFFFFFFFFFF NOT AND DUP3 PUSH28 0xFFFFFFFFFFFFFFFFFFFFFFFFFFFFFFFFFFFFFFFFFFFFFFFFFFFFFFFF NOT AND EQ DUP1 PUSH2 0x1282 JUMPI POP PUSH2 0x1281 DUP3 PUSH2 0x1B66 JUMP JUMPDEST JUMPDEST SWAP1 POP SWAP2 SWAP1 POP JUMP JUMPDEST PUSH0 PUSH0 PUSH2 0x1294 DUP4 PUSH2 0x1C47 JUMP JUMPDEST SWAP1 POP PUSH0 PUSH20 0xFFFFFFFFFFFFFFFFFFFFFFFFFFFFFFFFFFFFFFFF AND DUP2 PUSH20 0xFFFFFFFFFFFFFFFFFFFFFFFFFFFFFFFFFFFFFFFF AND SUB PUSH2 0x1306 JUMPI DUP3 PUSH1 0x40 MLOAD PUSH32 0x7E27328900000000000000000000000000000000000000000000000000000000 DUP2 MSTORE PUSH1 0x4 ADD PUSH2 0x12FD SWAP2 SWAP1 PUSH2 0x2865 JUMP JUMPDEST PUSH1 0x40 MLOAD DUP1 SWAP2 SUB SWAP1 REVERT JUMPDEST DUP1 SWAP2 POP POP SWAP2 SWAP1 POP JUMP JUMPDEST PUSH0 PUSH1 0x4 PUSH0 DUP4 DUP2 MSTORE PUSH1 0x20 ADD SWAP1 DUP2 MSTORE PUSH1 0x20 ADD PUSH0 KECCAK256 PUSH0 SWAP1 SLOAD SWAP1 PUSH2 0x100 EXP SWAP1 DIV PUSH20 0xFFFFFFFFFFFFFFFFFFFFFFFFFFFFFFFFFFFFFFFF AND SWAP1 POP SWAP2 SWAP1 POP JUMP JUMPDEST PUSH0 CALLER SWAP1 POP SWAP1 JUMP JUMPDEST PUSH2 0x135C DUP4 DUP4 DUP4 PUSH1 0x1 PUSH2 0x1C80 JUMP JUMPDEST POP POP POP JUMP JUMPDEST PUSH0 PUSH0 PUSH2 0x136C DUP5 PUSH2 0x1C47 JUMP JUMPDEST SWAP1 POP PUSH0 PUSH20 0xFFFFFFFFFFFFFFFFFFFFFFFFFFFFFFFFFFFFFFFF AND DUP4 PUSH20 0xFFFFFFFFFFFFFFFFFFFFFFFFFFFFFFFFFFFFFFFF AND EQ PUSH2 0x13AD JUMPI PUSH2 0x13AC DUP2 DUP5 DUP7 PUSH2 0x1E3F JUMP JUMPDEST JUMPDEST PUSH0 PUSH20 0xFFFFFFFFFFFFFFFFFFFFFFFFFFFFFFFFFFFFFFFF AND DUP2 PUSH20 0xFFFFFFFFFFFFFFFFFFFFFFFFFFFFFFFFFFFFFFFF AND EQ PUSH2 0x1438 JUMPI PUSH2 0x13EC PUSH0 DUP6 PUSH0 PUSH0 PUSH2 0x1C80 JUMP JUMPDEST PUSH1 0x1 PUSH1 0x3 PUSH0 DUP4 PUSH20 0xFFFFFFFFFFFFFFFFFFFFFFFFFFFFFFFFFFFFFFFF AND PUSH20 0xFFFFFFFFFFFFFFFFFFFFFFFFFFFFFFFFFFFFFFFF AND DUP2 MSTORE PUSH1 0x20 ADD SWAP1 DUP2 MSTORE PUSH1 0x20 ADD PUSH0 KECCAK256 PUSH0 DUP3 DUP3 SLOAD SUB SWAP3 POP POP DUP2 SWAP1 SSTORE POP JUMPDEST PUSH0 PUSH20 0xFFFFFFFFFFFFFFFFFFFFFFFFFFFFFFFFFFFFFFFF AND DUP6 PUSH20 0xFFFFFFFFFFFFFFFFFFFFFFFFFFFFFFFFFFFFFFFF AND EQ PUSH2 0x14B7 JUMPI PUSH1 0x1 PUSH1 0x3 PUSH0 DUP8 PUSH20 0xFFFFFFFFFFFFFFFFFFFFFFFFFFFFFFFFFFFFFFFF AND PUSH20 0xFFFFFFFFFFFFFFFFFFFFFFFFFFFFFFFFFFFFFFFF AND DUP2 MSTORE PUSH1 0x20 ADD SWAP1 DUP2 MSTORE PUSH1 0x20 ADD PUSH0 KECCAK256 PUSH0 DUP3 DUP3 SLOAD ADD SWAP3 POP POP DUP2 SWAP1 SSTORE POP JUMPDEST DUP5 PUSH1 0x2 PUSH0 DUP7 DUP2 MSTORE PUSH1 0x20 ADD SWAP1 DUP2 MSTORE PUSH1 0x20 ADD PUSH0 KECCAK256 PUSH0 PUSH2 0x100 EXP DUP2 SLOAD DUP2 PUSH20 0xFFFFFFFFFFFFFFFFFFFFFFFFFFFFFFFFFFFFFFFF MUL NOT AND SWAP1 DUP4 PUSH20 0xFFFFFFFFFFFFFFFFFFFFFFFFFFFFFFFFFFFFFFFF AND MUL OR SWAP1 SSTORE POP DUP4 DUP6 PUSH20 0xFFFFFFFFFFFFFFFFFFFFFFFFFFFFFFFFFFFFFFFF AND DUP3 PUSH20 0xFFFFFFFFFFFFFFFFFFFFFFFFFFFFFFFFFFFFFFFF AND PUSH32 0xDDF252AD1BE2C89B69C2B068FC378DAA952BA7F163C4A11628F55A4DF523B3EF PUSH1 0x40 MLOAD PUSH1 0x40 MLOAD DUP1 SWAP2 SUB SWAP1 LOG4 DUP1 SWAP2 POP POP SWAP4 SWAP3 POP POP POP JUMP JUMPDEST PUSH2 0x157D DUP2 PUSH2 0x1578 PUSH2 0x1348 JUMP JUMPDEST PUSH2 0x1F02 JUMP JUMPDEST POP JUMP JUMPDEST PUSH0 PUSH2 0x158B DUP4 DUP4 PUSH2 0xCF5 JUMP JUMPDEST PUSH2 0x1660 JUMPI PUSH1 0x1 PUSH1 0x6 PUSH0 DUP6 DUP2 MSTORE PUSH1 0x20 ADD SWAP1 DUP2 MSTORE PUSH1 0x20 ADD PUSH0 KECCAK256 PUSH0 ADD PUSH0 DUP5 PUSH20 0xFFFFFFFFFFFFFFFFFFFFFFFFFFFFFFFFFFFFFFFF AND PUSH20 0xFFFFFFFFFFFFFFFFFFFFFFFFFFFFFFFFFFFFFFFF AND DUP2 MSTORE PUSH1 0x20 ADD SWAP1 DUP2 MSTORE PUSH1 0x20 ADD PUSH0 KECCAK256 PUSH0 PUSH2 0x100 EXP DUP2 SLOAD DUP2 PUSH1 0xFF MUL NOT AND SWAP1 DUP4 ISZERO ISZERO MUL OR SWAP1 SSTORE POP PUSH2 0x15FD PUSH2 0x1348 JUMP JUMPDEST PUSH20 0xFFFFFFFFFFFFFFFFFFFFFFFFFFFFFFFFFFFFFFFF AND DUP3 PUSH20 0xFFFFFFFFFFFFFFFFFFFFFFFFFFFFFFFFFFFFFFFF AND DUP5 PUSH32 0x2F8788117E7EFF1D82E926EC794901D17C78024A50270940304540A733656F0D PUSH1 0x40 MLOAD PUSH1 0x40 MLOAD DUP1 SWAP2 SUB SWAP1 LOG4 PUSH1 0x1 SWAP1 POP PUSH2 0x1664 JUMP JUMPDEST PUSH0 SWAP1 POP JUMPDEST SWAP3 SWAP2 POP POP JUMP JUMPDEST PUSH0 PUSH2 0x1675 DUP4 DUP4 PUSH2 0xCF5 JUMP JUMPDEST ISZERO PUSH2 0x174A JUMPI PUSH0 PUSH1 0x6 PUSH0 DUP6 DUP2 MSTORE PUSH1 0x20 ADD SWAP1 DUP2 MSTORE PUSH1 0x20 ADD PUSH0 KECCAK256 PUSH0 ADD PUSH0 DUP5 PUSH20 0xFFFFFFFFFFFFFFFFFFFFFFFFFFFFFFFFFFFFFFFF AND PUSH20 0xFFFFFFFFFFFFFFFFFFFFFFFFFFFFFFFFFFFFFFFF AND DUP2 MSTORE PUSH1 0x20 ADD SWAP1 DUP2 MSTORE PUSH1 0x20 ADD PUSH0 KECCAK256 PUSH0 PUSH2 0x100 EXP DUP2 SLOAD DUP2 PUSH1 0xFF MUL NOT AND SWAP1 DUP4 ISZERO ISZERO MUL OR SWAP1 SSTORE POP PUSH2 0x16E7 PUSH2 0x1348 JUMP JUMPDEST PUSH20 0xFFFFFFFFFFFFFFFFFFFFFFFFFFFFFFFFFFFFFFFF AND DUP3 PUSH20 0xFFFFFFFFFFFFFFFFFFFFFFFFFFFFFFFFFFFFFFFF AND DUP5 PUSH32 0xF6391F5C32D9C69D2A47EA670B442974B53935D1EDC7FD64EB21E047A839171B PUSH1 0x40 MLOAD PUSH1 0x40 MLOAD DUP1 SWAP2 SUB SWAP1 LOG4 PUSH1 0x1 SWAP1 POP PUSH2 0x174E JUMP JUMPDEST PUSH0 SWAP1 POP JUMPDEST SWAP3 SWAP2 POP POP JUMP JUMPDEST PUSH2 0x176D DUP3 DUP3 PUSH1 0x40 MLOAD DUP1 PUSH1 0x20 ADD PUSH1 0x40 MSTORE DUP1 PUSH0 DUP2 MSTORE POP PUSH2 0x1F53 JUMP JUMPDEST POP POP JUMP JUMPDEST PUSH0 PUSH20 0xFFFFFFFFFFFFFFFFFFFFFFFFFFFFFFFFFFFFFFFF AND DUP3 PUSH20 0xFFFFFFFFFFFFFFFFFFFFFFFFFFFFFFFFFFFFFFFF AND SUB PUSH2 0x17E1 JUMPI DUP2 PUSH1 0x40 MLOAD PUSH32 0x5B08BA1800000000000000000000000000000000000000000000000000000000 DUP2 MSTORE PUSH1 0x4 ADD PUSH2 0x17D8 SWAP2 SWAP1 PUSH2 0x24D4 JUMP JUMPDEST PUSH1 0x40 MLOAD DUP1 SWAP2 SUB SWAP1 REVERT JUMPDEST DUP1 PUSH1 0x5 PUSH0 DUP6 PUSH20 0xFFFFFFFFFFFFFFFFFFFFFFFFFFFFFFFFFFFFFFFF AND PUSH20 0xFFFFFFFFFFFFFFFFFFFFFFFFFFFFFFFFFFFFFFFF AND DUP2 MSTORE PUSH1 0x20 ADD SWAP1 DUP2 MSTORE PUSH1 0x20 ADD PUSH0 KECCAK256 PUSH0 DUP5 PUSH20 0xFFFFFFFFFFFFFFFFFFFFFFFFFFFFFFFFFFFFFFFF AND PUSH20 0xFFFFFFFFFFFFFFFFFFFFFFFFFFFFFFFFFFFFFFFF AND DUP2 MSTORE PUSH1 0x20 ADD SWAP1 DUP2 MSTORE PUSH1 0x20 ADD PUSH0 KECCAK256 PUSH0 PUSH2 0x100 EXP DUP2 SLOAD DUP2 PUSH1 0xFF MUL NOT AND SWAP1 DUP4 ISZERO ISZERO MUL OR SWAP1 SSTORE POP DUP2 PUSH20 0xFFFFFFFFFFFFFFFFFFFFFFFFFFFFFFFFFFFFFFFF AND DUP4 PUSH20 0xFFFFFFFFFFFFFFFFFFFFFFFFFFFFFFFFFFFFFFFF AND PUSH32 0x17307EAB39AB6107E8899845AD3D59BD9653F200F220920489CA2B5937696C31 DUP4 PUSH1 0x40 MLOAD PUSH2 0x18CD SWAP2 SWAP1 PUSH2 0x238E JUMP JUMPDEST PUSH1 0x40 MLOAD DUP1 SWAP2 SUB SWAP1 LOG3 POP POP POP JUMP JUMPDEST PUSH0 DUP4 PUSH20 0xFFFFFFFFFFFFFFFFFFFFFFFFFFFFFFFFFFFFFFFF AND EXTCODESIZE GT ISZERO PUSH2 0x1A7F JUMPI DUP3 PUSH20 0xFFFFFFFFFFFFFFFFFFFFFFFFFFFFFFFFFFFFFFFF AND PUSH4 0x150B7A02 DUP7 DUP7 DUP6 DUP6 PUSH1 0x40 MLOAD DUP6 PUSH4 0xFFFFFFFF AND PUSH1 0xE0 SHL DUP2 MSTORE PUSH1 0x4 ADD PUSH2 0x1938 SWAP5 SWAP4 SWAP3 SWAP2 SWAP1 PUSH2 0x31BE JUMP JUMPDEST PUSH1 0x20 PUSH1 0x40 MLOAD DUP1 DUP4 SUB DUP2 PUSH0 DUP8 GAS CALL SWAP3 POP POP POP DUP1 ISZERO PUSH2 0x1973 JUMPI POP PUSH1 0x40 MLOAD RETURNDATASIZE PUSH1 0x1F NOT PUSH1 0x1F DUP3 ADD AND DUP3 ADD DUP1 PUSH1 0x40 MSTORE POP DUP2 ADD SWAP1 PUSH2 0x1970 SWAP2 SWAP1 PUSH2 0x321C JUMP JUMPDEST PUSH1 0x1 JUMPDEST PUSH2 0x19F4 JUMPI RETURNDATASIZE DUP1 PUSH0 DUP2 EQ PUSH2 0x19A1 JUMPI PUSH1 0x40 MLOAD SWAP2 POP PUSH1 0x1F NOT PUSH1 0x3F RETURNDATASIZE ADD AND DUP3 ADD PUSH1 0x40 MSTORE RETURNDATASIZE DUP3 MSTORE RETURNDATASIZE PUSH0 PUSH1 0x20 DUP5 ADD RETURNDATACOPY PUSH2 0x19A6 JUMP JUMPDEST PUSH1 0x60 SWAP2 POP JUMPDEST POP PUSH0 DUP2 MLOAD SUB PUSH2 0x19EC JUMPI DUP4 PUSH1 0x40 MLOAD PUSH32 0x64A0AE9200000000000000000000000000000000000000000000000000000000 DUP2 MSTORE PUSH1 0x4 ADD PUSH2 0x19E3 SWAP2 SWAP1 PUSH2 0x24D4 JUMP JUMPDEST PUSH1 0x40 MLOAD DUP1 SWAP2 SUB SWAP1 REVERT JUMPDEST DUP1 MLOAD PUSH1 0x20 DUP3 ADD REVERT JUMPDEST PUSH4 0x150B7A02 PUSH1 0xE0 SHL PUSH28 0xFFFFFFFFFFFFFFFFFFFFFFFFFFFFFFFFFFFFFFFFFFFFFFFFFFFFFFFF NOT AND DUP2 PUSH28 0xFFFFFFFFFFFFFFFFFFFFFFFFFFFFFFFFFFFFFFFFFFFFFFFFFFFFFFFF NOT AND EQ PUSH2 0x1A7D JUMPI DUP4 PUSH1 0x40 MLOAD PUSH32 0x64A0AE9200000000000000000000000000000000000000000000000000000000 DUP2 MSTORE PUSH1 0x4 ADD PUSH2 0x1A74 SWAP2 SWAP1 PUSH2 0x24D4 JUMP JUMPDEST PUSH1 0x40 MLOAD DUP1 SWAP2 SUB SWAP1 REVERT JUMPDEST POP JUMPDEST POP POP POP POP POP JUMP JUMPDEST PUSH1 0x60 PUSH1 0x40 MLOAD DUP1 PUSH1 0x20 ADD PUSH1 0x40 MSTORE DUP1 PUSH0 DUP2 MSTORE POP SWAP1 POP SWAP1 JUMP JUMPDEST PUSH1 0x60 PUSH0 PUSH1 0x1 PUSH2 0x1AAA DUP5 PUSH2 0x1F76 JUMP JUMPDEST ADD SWAP1 POP PUSH0 DUP2 PUSH8 0xFFFFFFFFFFFFFFFF DUP2 GT ISZERO PUSH2 0x1AC8 JUMPI PUSH2 0x1AC7 PUSH2 0x2671 JUMP JUMPDEST JUMPDEST PUSH1 0x40 MLOAD SWAP1 DUP1 DUP3 MSTORE DUP1 PUSH1 0x1F ADD PUSH1 0x1F NOT AND PUSH1 0x20 ADD DUP3 ADD PUSH1 0x40 MSTORE DUP1 ISZERO PUSH2 0x1AFA JUMPI DUP2 PUSH1 0x20 ADD PUSH1 0x1 DUP3 MUL DUP1 CALLDATASIZE DUP4 CALLDATACOPY DUP1 DUP3 ADD SWAP2 POP POP SWAP1 POP JUMPDEST POP SWAP1 POP PUSH0 DUP3 PUSH1 0x20 DUP4 ADD ADD SWAP1 POP JUMPDEST PUSH1 0x1 ISZERO PUSH2 0x1B5B JUMPI DUP1 DUP1 PUSH1 0x1 SWAP1 SUB SWAP2 POP POP PUSH32 0x3031323334353637383961626364656600000000000000000000000000000000 PUSH1 0xA DUP7 MOD BYTE DUP2 MSTORE8 PUSH1 0xA DUP6 DUP2 PUSH2 0x1B50 JUMPI PUSH2 0x1B4F PUSH2 0x3247 JUMP JUMPDEST JUMPDEST DIV SWAP5 POP PUSH0 DUP6 SUB PUSH2 0x1B07 JUMPI JUMPDEST DUP2 SWAP4 POP POP POP POP SWAP2 SWAP1 POP JUMP JUMPDEST PUSH0 PUSH32 0x80AC58CD00000000000000000000000000000000000000000000000000000000 PUSH28 0xFFFFFFFFFFFFFFFFFFFFFFFFFFFFFFFFFFFFFFFFFFFFFFFFFFFFFFFF NOT AND DUP3 PUSH28 0xFFFFFFFFFFFFFFFFFFFFFFFFFFFFFFFFFFFFFFFFFFFFFFFFFFFFFFFF NOT AND EQ DUP1 PUSH2 0x1C30 JUMPI POP PUSH32 0x5B5E139F00000000000000000000000000000000000000000000000000000000 PUSH28 0xFFFFFFFFFFFFFFFFFFFFFFFFFFFFFFFFFFFFFFFFFFFFFFFFFFFFFFFF NOT AND DUP3 PUSH28 0xFFFFFFFFFFFFFFFFFFFFFFFFFFFFFFFFFFFFFFFFFFFFFFFFFFFFFFFF NOT AND EQ JUMPDEST DUP1 PUSH2 0x1C40 JUMPI POP PUSH2 0x1C3F DUP3 PUSH2 0x20C7 JUMP JUMPDEST JUMPDEST SWAP1 POP SWAP2 SWAP1 POP JUMP JUMPDEST PUSH0 PUSH1 0x2 PUSH0 DUP4 DUP2 MSTORE PUSH1 0x20 ADD SWAP1 DUP2 MSTORE PUSH1 0x20 ADD PUSH0 KECCAK256 PUSH0 SWAP1 SLOAD SWAP1 PUSH2 0x100 EXP SWAP1 DIV PUSH20 0xFFFFFFFFFFFFFFFFFFFFFFFFFFFFFFFFFFFFFFFF AND SWAP1 POP SWAP2 SWAP1 POP JUMP JUMPDEST DUP1 DUP1 PUSH2 0x1CB8 JUMPI POP PUSH0 PUSH20 0xFFFFFFFFFFFFFFFFFFFFFFFFFFFFFFFFFFFFFFFF AND DUP3 PUSH20 0xFFFFFFFFFFFFFFFFFFFFFFFFFFFFFFFFFFFFFFFF AND EQ ISZERO JUMPDEST ISZERO PUSH2 0x1DEA JUMPI PUSH0 PUSH2 0x1CC7 DUP5 PUSH2 0x1289 JUMP JUMPDEST SWAP1 POP PUSH0 PUSH20 0xFFFFFFFFFFFFFFFFFFFFFFFFFFFFFFFFFFFFFFFF AND DUP4 PUSH20 0xFFFFFFFFFFFFFFFFFFFFFFFFFFFFFFFFFFFFFFFF AND EQ ISZERO DUP1 ISZERO PUSH2 0x1D31 JUMPI POP DUP3 PUSH20 0xFFFFFFFFFFFFFFFFFFFFFFFFFFFFFFFFFFFFFFFF AND DUP2 PUSH20 0xFFFFFFFFFFFFFFFFFFFFFFFFFFFFFFFFFFFFFFFF AND EQ ISZERO JUMPDEST DUP1 ISZERO PUSH2 0x1D44 JUMPI POP PUSH2 0x1D42 DUP2 DUP5 PUSH2 0x1182 JUMP JUMPDEST ISZERO JUMPDEST ISZERO PUSH2 0x1D86 JUMPI DUP3 PUSH1 0x40 MLOAD PUSH32 0xA9FBF51F00000000000000000000000000000000000000000000000000000000 DUP2 MSTORE PUSH1 0x4 ADD PUSH2 0x1D7D SWAP2 SWAP1 PUSH2 0x24D4 JUMP JUMPDEST PUSH1 0x40 MLOAD DUP1 SWAP2 SUB SWAP1 REVERT JUMPDEST DUP2 ISZERO PUSH2 0x1DE8 JUMPI DUP4 DUP6 PUSH20 0xFFFFFFFFFFFFFFFFFFFFFFFFFFFFFFFFFFFFFFFF AND DUP3 PUSH20 0xFFFFFFFFFFFFFFFFFFFFFFFFFFFFFFFFFFFFFFFF AND PUSH32 0x8C5BE1E5EBEC7D5BD14F71427D1E84F3DD0314C0F7B2291E5B200AC8C7C3B925 PUSH1 0x40 MLOAD PUSH1 0x40 MLOAD DUP1 SWAP2 SUB SWAP1 LOG4 JUMPDEST POP JUMPDEST DUP4 PUSH1 0x4 PUSH0 DUP6 DUP2 MSTORE PUSH1 0x20 ADD SWAP1 DUP2 MSTORE PUSH1 0x20 ADD PUSH0 KECCAK256 PUSH0 PUSH2 0x100 EXP DUP2 SLOAD DUP2 PUSH20 0xFFFFFFFFFFFFFFFFFFFFFFFFFFFFFFFFFFFFFFFF MUL NOT AND SWAP1 DUP4 PUSH20 0xFFFFFFFFFFFFFFFFFFFFFFFFFFFFFFFFFFFFFFFF AND MUL OR SWAP1 SSTORE POP POP POP POP POP JUMP JUMPDEST PUSH2 0x1E4A DUP4 DUP4 DUP4 PUSH2 0x2130 JUMP JUMPDEST PUSH2 0x1EFD JUMPI PUSH0 PUSH20 0xFFFFFFFFFFFFFFFFFFFFFFFFFFFFFFFFFFFFFFFF AND DUP4 PUSH20 0xFFFFFFFFFFFFFFFFFFFFFFFFFFFFFFFFFFFFFFFF AND SUB PUSH2 0x1EBE JUMPI DUP1 PUSH1 0x40 MLOAD PUSH32 0x7E27328900000000000000000000000000000000000000000000000000000000 DUP2 MSTORE PUSH1 0x4 ADD PUSH2 0x1EB5 SWAP2 SWAP1 PUSH2 0x2865 JUMP JUMPDEST PUSH1 0x40 MLOAD DUP1 SWAP2 SUB SWAP1 REVERT JUMPDEST DUP2 DUP2 PUSH1 0x40 MLOAD PUSH32 0x177E802F00000000000000000000000000000000000000000000000000000000 DUP2 MSTORE PUSH1 0x4 ADD PUSH2 0x1EF4 SWAP3 SWAP2 SWAP1 PUSH2 0x3274 JUMP JUMPDEST PUSH1 0x40 MLOAD DUP1 SWAP2 SUB SWAP1 REVERT JUMPDEST POP POP POP JUMP JUMPDEST PUSH2 0x1F0C DUP3 DUP3 PUSH2 0xCF5 JUMP JUMPDEST PUSH2 0x1F4F JUMPI DUP1 DUP3 PUSH1 0x40 MLOAD PUSH32 0xE2517D3F00000000000000000000000000000000000000000000000000000000 DUP2 MSTORE PUSH1 0x4 ADD PUSH2 0x1F46 SWAP3 SWAP2 SWAP1 PUSH2 0x329B JUMP JUMPDEST PUSH1 0x40 MLOAD DUP1 SWAP2 SUB SWAP1 REVERT JUMPDEST POP POP JUMP JUMPDEST PUSH2 0x1F5D DUP4 DUP4 PUSH2 0x21F0 JUMP JUMPDEST PUSH2 0x1F71 PUSH2 0x1F68 PUSH2 0x1348 JUMP JUMPDEST PUSH0 DUP6 DUP6 DUP6 PUSH2 0x18DA JUMP JUMPDEST POP POP POP JUMP JUMPDEST PUSH0 PUSH0 PUSH0 SWAP1 POP PUSH27 0x184F03E93FF9F4DAA797ED6E38ED64BF6A1F010000000000000000 DUP4 LT PUSH2 0x1FD2 JUMPI PUSH27 0x184F03E93FF9F4DAA797ED6E38ED64BF6A1F010000000000000000 DUP4 DUP2 PUSH2 0x1FC8 JUMPI PUSH2 0x1FC7 PUSH2 0x3247 JUMP JUMPDEST JUMPDEST DIV SWAP3 POP PUSH1 0x40 DUP2 ADD SWAP1 POP JUMPDEST PUSH14 0x4EE2D6D415B85ACEF8100000000 DUP4 LT PUSH2 0x200F JUMPI PUSH14 0x4EE2D6D415B85ACEF8100000000 DUP4 DUP2 PUSH2 0x2005 JUMPI PUSH2 0x2004 PUSH2 0x3247 JUMP JUMPDEST JUMPDEST DIV SWAP3 POP PUSH1 0x20 DUP2 ADD SWAP1 POP JUMPDEST PUSH7 0x2386F26FC10000 DUP4 LT PUSH2 0x203E JUMPI PUSH7 0x2386F26FC10000 DUP4 DUP2 PUSH2 0x2034 JUMPI PUSH2 0x2033 PUSH2 0x3247 JUMP JUMPDEST JUMPDEST DIV SWAP3 POP PUSH1 0x10 DUP2 ADD SWAP1 POP JUMPDEST PUSH4 0x5F5E100 DUP4 LT PUSH2 0x2067 JUMPI PUSH4 0x5F5E100 DUP4 DUP2 PUSH2 0x205D JUMPI PUSH2 0x205C PUSH2 0x3247 JUMP JUMPDEST JUMPDEST DIV SWAP3 POP PUSH1 0x8 DUP2 ADD SWAP1 POP JUMPDEST PUSH2 0x2710 DUP4 LT PUSH2 0x208C JUMPI PUSH2 0x2710 DUP4 DUP2 PUSH2 0x2082 JUMPI PUSH2 0x2081 PUSH2 0x3247 JUMP JUMPDEST JUMPDEST DIV SWAP3 POP PUSH1 0x4 DUP2 ADD SWAP1 POP JUMPDEST PUSH1 0x64 DUP4 LT PUSH2 0x20AF JUMPI PUSH1 0x64 DUP4 DUP2 PUSH2 0x20A5 JUMPI PUSH2 0x20A4 PUSH2 0x3247 JUMP JUMPDEST JUMPDEST DIV SWAP3 POP PUSH1 0x2 DUP2 ADD SWAP1 POP JUMPDEST PUSH1 0xA DUP4 LT PUSH2 0x20BE JUMPI PUSH1 0x1 DUP2 ADD SWAP1 POP JUMPDEST DUP1 SWAP2 POP POP SWAP2 SWAP1 POP JUMP JUMPDEST PUSH0 PUSH32 0x1FFC9A700000000000000000000000000000000000000000000000000000000 PUSH28 0xFFFFFFFFFFFFFFFFFFFFFFFFFFFFFFFFFFFFFFFFFFFFFFFFFFFFFFFF NOT AND DUP3 PUSH28 0xFFFFFFFFFFFFFFFFFFFFFFFFFFFFFFFFFFFFFFFFFFFFFFFFFFFFFFFF NOT AND EQ SWAP1 POP SWAP2 SWAP1 POP JUMP JUMPDEST PUSH0 PUSH0 PUSH20 0xFFFFFFFFFFFFFFFFFFFFFFFFFFFFFFFFFFFFFFFF AND DUP4 PUSH20 0xFFFFFFFFFFFFFFFFFFFFFFFFFFFFFFFFFFFFFFFF AND EQ ISZERO DUP1 ISZERO PUSH2 0x21E7 JUMPI POP DUP3 PUSH20 0xFFFFFFFFFFFFFFFFFFFFFFFFFFFFFFFFFFFFFFFF AND DUP5 PUSH20 0xFFFFFFFFFFFFFFFFFFFFFFFFFFFFFFFFFFFFFFFF AND EQ DUP1 PUSH2 0x21A8 JUMPI POP PUSH2 0x21A7 DUP5 DUP5 PUSH2 0x1182 JUMP JUMPDEST JUMPDEST DUP1 PUSH2 0x21E6 JUMPI POP DUP3 PUSH20 0xFFFFFFFFFFFFFFFFFFFFFFFFFFFFFFFFFFFFFFFF AND PUSH2 0x21CE DUP4 PUSH2 0x130F JUMP JUMPDEST PUSH20 0xFFFFFFFFFFFFFFFFFFFFFFFFFFFFFFFFFFFFFFFF AND EQ JUMPDEST JUMPDEST SWAP1 POP SWAP4 SWAP3 POP POP POP JUMP JUMPDEST PUSH0 PUSH20 0xFFFFFFFFFFFFFFFFFFFFFFFFFFFFFFFFFFFFFFFF AND DUP3 PUSH20 0xFFFFFFFFFFFFFFFFFFFFFFFFFFFFFFFFFFFFFFFF AND SUB PUSH2 0x2260 JUMPI PUSH0 PUSH1 0x40 MLOAD PUSH32 0x64A0AE9200000000000000000000000000000000000000000000000000000000 DUP2 MSTORE PUSH1 0x4 ADD PUSH2 0x2257 SWAP2 SWAP1 PUSH2 0x24D4 JUMP JUMPDEST PUSH1 0x40 MLOAD DUP1 SWAP2 SUB SWAP1 REVERT JUMPDEST PUSH0 PUSH2 0x226C DUP4 DUP4 PUSH0 PUSH2 0x1361 JUMP JUMPDEST SWAP1 POP PUSH0 PUSH20 0xFFFFFFFFFFFFFFFFFFFFFFFFFFFFFFFFFFFFFFFF AND DUP2 PUSH20 0xFFFFFFFFFFFFFFFFFFFFFFFFFFFFFFFFFFFFFFFF AND EQ PUSH2 0x22DE JUMPI PUSH0 PUSH1 0x40 MLOAD PUSH32 0x73C6AC6E00000000000000000000000000000000000000000000000000000000 DUP2 MSTORE PUSH1 0x4 ADD PUSH2 0x22D5 SWAP2 SWAP1 PUSH2 0x24D4 JUMP JUMPDEST PUSH1 0x40 MLOAD DUP1 SWAP2 SUB SWAP1 REVERT JUMPDEST POP POP POP JUMP JUMPDEST PUSH0 PUSH1 0x40 MLOAD SWAP1 POP SWAP1 JUMP JUMPDEST PUSH0 PUSH0 REVERT JUMPDEST PUSH0 PUSH0 REVERT JUMPDEST PUSH0 PUSH32 0xFFFFFFFF00000000000000000000000000000000000000000000000000000000 DUP3 AND SWAP1 POP SWAP2 SWAP1 POP JUMP JUMPDEST PUSH2 0x2328 DUP2 PUSH2 0x22F4 JUMP JUMPDEST DUP2 EQ PUSH2 0x2332 JUMPI PUSH0 PUSH0 REVERT JUMPDEST POP JUMP JUMPDEST PUSH0 DUP2 CALLDATALOAD SWAP1 POP PUSH2 0x2343 DUP2 PUSH2 0x231F JUMP JUMPDEST SWAP3 SWAP2 POP POP JUMP JUMPDEST PUSH0 PUSH1 0x20 DUP3 DUP5 SUB SLT ISZERO PUSH2 0x235E JUMPI PUSH2 0x235D PUSH2 0x22EC JUMP JUMPDEST JUMPDEST PUSH0 PUSH2 0x236B DUP5 DUP3 DUP6 ADD PUSH2 0x2335 JUMP JUMPDEST SWAP2 POP POP SWAP3 SWAP2 POP POP JUMP JUMPDEST PUSH0 DUP2 ISZERO ISZERO SWAP1 POP SWAP2 SWAP1 POP JUMP JUMPDEST PUSH2 0x2388 DUP2 PUSH2 0x2374 JUMP JUMPDEST DUP3 MSTORE POP POP JUMP JUMPDEST PUSH0 PUSH1 0x20 DUP3 ADD SWAP1 POP PUSH2 0x23A1 PUSH0 DUP4 ADD DUP5 PUSH2 0x237F JUMP JUMPDEST SWAP3 SWAP2 POP POP JUMP JUMPDEST PUSH0 DUP2 MLOAD SWAP1 POP SWAP2 SWAP1 POP JUMP JUMPDEST PUSH0 DUP3 DUP3 MSTORE PUSH1 0x20 DUP3 ADD SWAP1 POP SWAP3 SWAP2 POP POP JUMP JUMPDEST DUP3 DUP2 DUP4 MCOPY PUSH0 DUP4 DUP4 ADD MSTORE POP POP POP JUMP JUMPDEST PUSH0 PUSH1 0x1F NOT PUSH1 0x1F DUP4 ADD AND SWAP1 POP SWAP2 SWAP1 POP JUMP JUMPDEST PUSH0 PUSH2 0x23E9 DUP3 PUSH2 0x23A7 JUMP JUMPDEST PUSH2 0x23F3 DUP2 DUP6 PUSH2 0x23B1 JUMP JUMPDEST SWAP4 POP PUSH2 0x2403 DUP2 DUP6 PUSH1 0x20 DUP7 ADD PUSH2 0x23C1 JUMP JUMPDEST PUSH2 0x240C DUP2 PUSH2 0x23CF JUMP JUMPDEST DUP5 ADD SWAP2 POP POP SWAP3 SWAP2 POP POP JUMP JUMPDEST PUSH0 PUSH1 0x20 DUP3 ADD SWAP1 POP DUP2 DUP2 SUB PUSH0 DUP4 ADD MSTORE PUSH2 0x242F DUP2 DUP5 PUSH2 0x23DF JUMP JUMPDEST SWAP1 POP SWAP3 SWAP2 POP POP JUMP JUMPDEST PUSH0 DUP2 SWAP1 POP SWAP2 SWAP1 POP JUMP JUMPDEST PUSH2 0x2449 DUP2 PUSH2 0x2437 JUMP JUMPDEST DUP2 EQ PUSH2 0x2453 JUMPI PUSH0 PUSH0 REVERT JUMPDEST POP JUMP JUMPDEST PUSH0 DUP2 CALLDATALOAD SWAP1 POP PUSH2 0x2464 DUP2 PUSH2 0x2440 JUMP JUMPDEST SWAP3 SWAP2 POP POP JUMP JUMPDEST PUSH0 PUSH1 0x20 DUP3 DUP5 SUB SLT ISZERO PUSH2 0x247F JUMPI PUSH2 0x247E PUSH2 0x22EC JUMP JUMPDEST JUMPDEST PUSH0 PUSH2 0x248C DUP5 DUP3 DUP6 ADD PUSH2 0x2456 JUMP JUMPDEST SWAP2 POP POP SWAP3 SWAP2 POP POP JUMP JUMPDEST PUSH0 PUSH20 0xFFFFFFFFFFFFFFFFFFFFFFFFFFFFFFFFFFFFFFFF DUP3 AND SWAP1 POP SWAP2 SWAP1 POP JUMP JUMPDEST PUSH0 PUSH2 0x24BE DUP3 PUSH2 0x2495 JUMP JUMPDEST SWAP1 POP SWAP2 SWAP1 POP JUMP JUMPDEST PUSH2 0x24CE DUP2 PUSH2 0x24B4 JUMP JUMPDEST DUP3 MSTORE POP POP JUMP JUMPDEST PUSH0 PUSH1 0x20 DUP3 ADD SWAP1 POP PUSH2 0x24E7 PUSH0 DUP4 ADD DUP5 PUSH2 0x24C5 JUMP JUMPDEST SWAP3 SWAP2 POP POP JUMP JUMPDEST PUSH2 0x24F6 DUP2 PUSH2 0x24B4 JUMP JUMPDEST DUP2 EQ PUSH2 0x2500 JUMPI PUSH0 PUSH0 REVERT JUMPDEST POP JUMP JUMPDEST PUSH0 DUP2 CALLDATALOAD SWAP1 POP PUSH2 0x2511 DUP2 PUSH2 0x24ED JUMP JUMPDEST SWAP3 SWAP2 POP POP JUMP JUMPDEST PUSH0 PUSH0 PUSH1 0x40 DUP4 DUP6 SUB SLT ISZERO PUSH2 0x252D JUMPI PUSH2 0x252C PUSH2 0x22EC JUMP JUMPDEST JUMPDEST PUSH0 PUSH2 0x253A DUP6 DUP3 DUP7 ADD PUSH2 0x2503 JUMP JUMPDEST SWAP3 POP POP PUSH1 0x20 PUSH2 0x254B DUP6 DUP3 DUP7 ADD PUSH2 0x2456 JUMP JUMPDEST SWAP2 POP POP SWAP3 POP SWAP3 SWAP1 POP JUMP JUMPDEST PUSH0 PUSH0 PUSH0 PUSH1 0x60 DUP5 DUP7 SUB SLT ISZERO PUSH2 0x256C JUMPI PUSH2 0x256B PUSH2 0x22EC JUMP JUMPDEST JUMPDEST PUSH0 PUSH2 0x2579 DUP7 DUP3 DUP8 ADD PUSH2 0x2503 JUMP JUMPDEST SWAP4 POP POP PUSH1 0x20 PUSH2 0x258A DUP7 DUP3 DUP8 ADD PUSH2 0x2503 JUMP JUMPDEST SWAP3 POP POP PUSH1 0x40 PUSH2 0x259B DUP7 DUP3 DUP8 ADD PUSH2 0x2456 JUMP JUMPDEST SWAP2 POP POP SWAP3 POP SWAP3 POP SWAP3 JUMP JUMPDEST PUSH0 DUP2 SWAP1 POP SWAP2 SWAP1 POP JUMP JUMPDEST PUSH2 0x25B7 DUP2 PUSH2 0x25A5 JUMP JUMPDEST DUP2 EQ PUSH2 0x25C1 JUMPI PUSH0 PUSH0 REVERT JUMPDEST POP JUMP JUMPDEST PUSH0 DUP2 CALLDATALOAD SWAP1 POP PUSH2 0x25D2 DUP2 PUSH2 0x25AE JUMP JUMPDEST SWAP3 SWAP2 POP POP JUMP JUMPDEST PUSH0 PUSH1 0x20 DUP3 DUP5 SUB SLT ISZERO PUSH2 0x25ED JUMPI PUSH2 0x25EC PUSH2 0x22EC JUMP JUMPDEST JUMPDEST PUSH0 PUSH2 0x25FA DUP5 DUP3 DUP6 ADD PUSH2 0x25C4 JUMP JUMPDEST SWAP2 POP POP SWAP3 SWAP2 POP POP JUMP JUMPDEST PUSH2 0x260C DUP2 PUSH2 0x25A5 JUMP JUMPDEST DUP3 MSTORE POP POP JUMP JUMPDEST PUSH0 PUSH1 0x20 DUP3 ADD SWAP1 POP PUSH2 0x2625 PUSH0 DUP4 ADD DUP5 PUSH2 0x2603 JUMP JUMPDEST SWAP3 SWAP2 POP POP JUMP JUMPDEST PUSH0 PUSH0 PUSH1 0x40 DUP4 DUP6 SUB SLT ISZERO PUSH2 0x2641 JUMPI PUSH2 0x2640 PUSH2 0x22EC JUMP JUMPDEST JUMPDEST PUSH0 PUSH2 0x264E DUP6 DUP3 DUP7 ADD PUSH2 0x25C4 JUMP JUMPDEST SWAP3 POP POP PUSH1 0x20 PUSH2 0x265F DUP6 DUP3 DUP7 ADD PUSH2 0x2503 JUMP JUMPDEST SWAP2 POP POP SWAP3 POP SWAP3 SWAP1 POP JUMP JUMPDEST PUSH0 PUSH0 REVERT JUMPDEST PUSH0 PUSH0 REVERT JUMPDEST PUSH32 0x4E487B7100000000000000000000000000000000000000000000000000000000 PUSH0 MSTORE PUSH1 0x41 PUSH1 0x4 MSTORE PUSH1 0x24 PUSH0 REVERT JUMPDEST PUSH2 0x26A7 DUP3 PUSH2 0x23CF JUMP JUMPDEST DUP2 ADD DUP2 DUP2 LT PUSH8 0xFFFFFFFFFFFFFFFF DUP3 GT OR ISZERO PUSH2 0x26C6 JUMPI PUSH2 0x26C5 PUSH2 0x2671 JUMP JUMPDEST JUMPDEST DUP1 PUSH1 0x40 MSTORE POP POP POP JUMP JUMPDEST PUSH0 PUSH2 0x26D8 PUSH2 0x22E3 JUMP JUMPDEST SWAP1 POP PUSH2 0x26E4 DUP3 DUP3 PUSH2 0x269E JUMP JUMPDEST SWAP2 SWAP1 POP JUMP JUMPDEST PUSH0 PUSH8 0xFFFFFFFFFFFFFFFF DUP3 GT ISZERO PUSH2 0x2703 JUMPI PUSH2 0x2702 PUSH2 0x2671 JUMP JUMPDEST JUMPDEST PUSH2 0x270C DUP3 PUSH2 0x23CF JUMP JUMPDEST SWAP1 POP PUSH1 0x20 DUP2 ADD SWAP1 POP SWAP2 SWAP1 POP JUMP JUMPDEST DUP3 DUP2 DUP4 CALLDATACOPY PUSH0 DUP4 DUP4 ADD MSTORE POP POP POP JUMP JUMPDEST PUSH0 PUSH2 0x2739 PUSH2 0x2734 DUP5 PUSH2 0x26E9 JUMP JUMPDEST PUSH2 0x26CF JUMP JUMPDEST SWAP1 POP DUP3 DUP2 MSTORE PUSH1 0x20 DUP2 ADD DUP5 DUP5 DUP5 ADD GT ISZERO PUSH2 0x2755 JUMPI PUSH2 0x2754 PUSH2 0x266D JUMP JUMPDEST JUMPDEST PUSH2 0x2760 DUP5 DUP3 DUP6 PUSH2 0x2719 JUMP JUMPDEST POP SWAP4 SWAP3 POP POP POP JUMP JUMPDEST PUSH0 DUP3 PUSH1 0x1F DUP4 ADD SLT PUSH2 0x277C JUMPI PUSH2 0x277B PUSH2 0x2669 JUMP JUMPDEST JUMPDEST DUP2 CALLDATALOAD PUSH2 0x278C DUP5 DUP3 PUSH1 0x20 DUP7 ADD PUSH2 0x2727 JUMP JUMPDEST SWAP2 POP POP SWAP3 SWAP2 POP POP JUMP JUMPDEST PUSH2 0x279E DUP2 PUSH2 0x2374 JUMP JUMPDEST DUP2 EQ PUSH2 0x27A8 JUMPI PUSH0 PUSH0 REVERT JUMPDEST POP JUMP JUMPDEST PUSH0 DUP2 CALLDATALOAD SWAP1 POP PUSH2 0x27B9 DUP2 PUSH2 0x2795 JUMP JUMPDEST SWAP3 SWAP2 POP POP JUMP JUMPDEST PUSH0 PUSH0 PUSH0 PUSH1 0x60 DUP5 DUP7 SUB SLT ISZERO PUSH2 0x27D6 JUMPI PUSH2 0x27D5 PUSH2 0x22EC JUMP JUMPDEST JUMPDEST PUSH0 PUSH2 0x27E3 DUP7 DUP3 DUP8 ADD PUSH2 0x2456 JUMP JUMPDEST SWAP4 POP POP PUSH1 0x20 DUP5 ADD CALLDATALOAD PUSH8 0xFFFFFFFFFFFFFFFF DUP2 GT ISZERO PUSH2 0x2804 JUMPI PUSH2 0x2803 PUSH2 0x22F0 JUMP JUMPDEST JUMPDEST PUSH2 0x2810 DUP7 DUP3 DUP8 ADD PUSH2 0x2768 JUMP JUMPDEST SWAP3 POP POP PUSH1 0x40 PUSH2 0x2821 DUP7 DUP3 DUP8 ADD PUSH2 0x27AB JUMP JUMPDEST SWAP2 POP POP SWAP3 POP SWAP3 POP SWAP3 JUMP JUMPDEST PUSH0 PUSH1 0x20 DUP3 DUP5 SUB SLT ISZERO PUSH2 0x2840 JUMPI PUSH2 0x283F PUSH2 0x22EC JUMP JUMPDEST JUMPDEST PUSH0 PUSH2 0x284D DUP5 DUP3 DUP6 ADD PUSH2 0x2503 JUMP JUMPDEST SWAP2 POP POP SWAP3 SWAP2 POP POP JUMP JUMPDEST PUSH2 0x285F DUP2 PUSH2 0x2437 JUMP JUMPDEST DUP3 MSTORE POP POP JUMP JUMPDEST PUSH0 PUSH1 0x20 DUP3 ADD SWAP1 POP PUSH2 0x2878 PUSH0 DUP4 ADD DUP5 PUSH2 0x2856 JUMP JUMPDEST SWAP3 SWAP2 POP POP JUMP JUMPDEST PUSH0 PUSH0 PUSH0 PUSH0 PUSH1 0x80 DUP6 DUP8 SUB SLT ISZERO PUSH2 0x2896 JUMPI PUSH2 0x2895 PUSH2 0x22EC JUMP JUMPDEST JUMPDEST PUSH0 PUSH2 0x28A3 DUP8 DUP3 DUP9 ADD PUSH2 0x2503 JUMP JUMPDEST SWAP5 POP POP PUSH1 0x20 DUP6 ADD CALLDATALOAD PUSH8 0xFFFFFFFFFFFFFFFF DUP2 GT ISZERO PUSH2 0x28C4 JUMPI PUSH2 0x28C3 PUSH2 0x22F0 JUMP JUMPDEST JUMPDEST PUSH2 0x28D0 DUP8 DUP3 DUP9 ADD PUSH2 0x2768 JUMP JUMPDEST SWAP4 POP POP PUSH1 0x40 PUSH2 0x28E1 DUP8 DUP3 DUP9 ADD PUSH2 0x2456 JUMP JUMPDEST SWAP3 POP POP PUSH1 0x60 DUP6 ADD CALLDATALOAD PUSH8 0xFFFFFFFFFFFFFFFF DUP2 GT ISZERO PUSH2 0x2902 JUMPI PUSH2 0x2901 PUSH2 0x22F0 JUMP JUMPDEST JUMPDEST PUSH2 0x290E DUP8 DUP3 DUP9 ADD PUSH2 0x2768 JUMP JUMPDEST SWAP2 POP POP SWAP3 SWAP6 SWAP2 SWAP5 POP SWAP3 POP JUMP JUMPDEST PUSH0 PUSH0 PUSH1 0x40 DUP4 DUP6 SUB SLT ISZERO PUSH2 0x2930 JUMPI PUSH2 0x292F PUSH2 0x22EC JUMP JUMPDEST JUMPDEST PUSH0 PUSH2 0x293D DUP6 DUP3 DUP7 ADD PUSH2 0x2503 JUMP JUMPDEST SWAP3 POP POP PUSH1 0x20 PUSH2 0x294E DUP6 DUP3 DUP7 ADD PUSH2 0x27AB JUMP JUMPDEST SWAP2 POP POP SWAP3 POP SWAP3 SWAP1 POP JUMP JUMPDEST PUSH0 DUP2 MLOAD SWAP1 POP SWAP2 SWAP1 POP JUMP JUMPDEST PUSH0 DUP3 DUP3 MSTORE PUSH1 0x20 DUP3 ADD SWAP1 POP SWAP3 SWAP2 POP POP JUMP JUMPDEST PUSH0 DUP2 SWAP1 POP PUSH1 0x20 DUP3 ADD SWAP1 POP SWAP2 SWAP1 POP JUMP JUMPDEST PUSH0 DUP3 DUP3 MSTORE PUSH1 0x20 DUP3 ADD SWAP1 POP SWAP3 SWAP2 POP POP JUMP JUMPDEST PUSH0 PUSH2 0x299B DUP3 PUSH2 0x23A7 JUMP JUMPDEST PUSH2 0x29A5 DUP2 DUP6 PUSH2 0x2981 JUMP JUMPDEST SWAP4 POP PUSH2 0x29B5 DUP2 DUP6 PUSH1 0x20 DUP7 ADD PUSH2 0x23C1 JUMP JUMPDEST PUSH2 0x29BE DUP2 PUSH2 0x23CF JUMP JUMPDEST DUP5 ADD SWAP2 POP POP SWAP3 SWAP2 POP POP JUMP JUMPDEST PUSH2 0x29D2 DUP2 PUSH2 0x2437 JUMP JUMPDEST DUP3 MSTORE POP POP JUMP JUMPDEST PUSH2 0x29E1 DUP2 PUSH2 0x2374 JUMP JUMPDEST DUP3 MSTORE POP POP JUMP JUMPDEST PUSH0 PUSH1 0x60 DUP4 ADD PUSH0 DUP4 ADD MLOAD DUP5 DUP3 SUB PUSH0 DUP7 ADD MSTORE PUSH2 0x2A01 DUP3 DUP3 PUSH2 0x2991 JUMP JUMPDEST SWAP2 POP POP PUSH1 0x20 DUP4 ADD MLOAD PUSH2 0x2A16 PUSH1 0x20 DUP7 ADD DUP3 PUSH2 0x29C9 JUMP JUMPDEST POP PUSH1 0x40 DUP4 ADD MLOAD PUSH2 0x2A29 PUSH1 0x40 DUP7 ADD DUP3 PUSH2 0x29D8 JUMP JUMPDEST POP DUP1 SWAP2 POP POP SWAP3 SWAP2 POP POP JUMP JUMPDEST PUSH0 PUSH2 0x2A3F DUP4 DUP4 PUSH2 0x29E7 JUMP JUMPDEST SWAP1 POP SWAP3 SWAP2 POP POP JUMP JUMPDEST PUSH0 PUSH1 0x20 DUP3 ADD SWAP1 POP SWAP2 SWAP1 POP JUMP JUMPDEST PUSH0 PUSH2 0x2A5D DUP3 PUSH2 0x2958 JUMP JUMPDEST PUSH2 0x2A67 DUP2 DUP6 PUSH2 0x2962 JUMP JUMPDEST SWAP4 POP DUP4 PUSH1 0x20 DUP3 MUL DUP6 ADD PUSH2 0x2A79 DUP6 PUSH2 0x2972 JUMP JUMPDEST DUP1 PUSH0 JUMPDEST DUP6 DUP2 LT ISZERO PUSH2 0x2AB4 JUMPI DUP5 DUP5 SUB DUP10 MSTORE DUP2 MLOAD PUSH2 0x2A95 DUP6 DUP3 PUSH2 0x2A34 JUMP JUMPDEST SWAP5 POP PUSH2 0x2AA0 DUP4 PUSH2 0x2A47 JUMP JUMPDEST SWAP3 POP PUSH1 0x20 DUP11 ADD SWAP10 POP POP PUSH1 0x1 DUP2 ADD SWAP1 POP PUSH2 0x2A7C JUMP JUMPDEST POP DUP3 SWAP8 POP DUP8 SWAP6 POP POP POP POP POP POP SWAP3 SWAP2 POP POP JUMP JUMPDEST PUSH0 PUSH1 0x60 DUP3 ADD SWAP1 POP DUP2 DUP2 SUB PUSH0 DUP4 ADD MSTORE PUSH2 0x2ADE DUP2 DUP7 PUSH2 0x23DF JUMP JUMPDEST SWAP1 POP DUP2 DUP2 SUB PUSH1 0x20 DUP4 ADD MSTORE PUSH2 0x2AF2 DUP2 DUP6 PUSH2 0x2A53 JUMP JUMPDEST SWAP1 POP PUSH2 0x2B01 PUSH1 0x40 DUP4 ADD DUP5 PUSH2 0x2856 JUMP JUMPDEST SWAP5 SWAP4 POP POP POP POP JUMP JUMPDEST PUSH0 PUSH1 0x40 DUP3 ADD SWAP1 POP DUP2 DUP2 SUB PUSH0 DUP4 ADD MSTORE PUSH2 0x2B21 DUP2 DUP6 PUSH2 0x23DF JUMP JUMPDEST SWAP1 POP PUSH2 0x2B30 PUSH1 0x20 DUP4 ADD DUP5 PUSH2 0x2856 JUMP JUMPDEST SWAP4 SWAP3 POP POP POP JUMP JUMPDEST PUSH0 PUSH8 0xFFFFFFFFFFFFFFFF DUP3 GT ISZERO PUSH2 0x2B51 JUMPI PUSH2 0x2B50 PUSH2 0x2671 JUMP JUMPDEST JUMPDEST PUSH2 0x2B5A DUP3 PUSH2 0x23CF JUMP JUMPDEST SWAP1 POP PUSH1 0x20 DUP2 ADD SWAP1 POP SWAP2 SWAP1 POP JUMP JUMPDEST PUSH0 PUSH2 0x2B79 PUSH2 0x2B74 DUP5 PUSH2 0x2B37 JUMP JUMPDEST PUSH2 0x26CF JUMP JUMPDEST SWAP1 POP DUP3 DUP2 MSTORE PUSH1 0x20 DUP2 ADD DUP5 DUP5 DUP5 ADD GT ISZERO PUSH2 0x2B95 JUMPI PUSH2 0x2B94 PUSH2 0x266D JUMP JUMPDEST JUMPDEST PUSH2 0x2BA0 DUP5 DUP3 DUP6 PUSH2 0x2719 JUMP JUMPDEST POP SWAP4 SWAP3 POP POP POP JUMP JUMPDEST PUSH0 DUP3 PUSH1 0x1F DUP4 ADD SLT PUSH2 0x2BBC JUMPI PUSH2 0x2BBB PUSH2 0x2669 JUMP JUMPDEST JUMPDEST DUP2 CALLDATALOAD PUSH2 0x2BCC DUP5 DUP3 PUSH1 0x20 DUP7 ADD PUSH2 0x2B67 JUMP JUMPDEST SWAP2 POP POP SWAP3 SWAP2 POP POP JUMP JUMPDEST PUSH0 PUSH0 PUSH0 PUSH0 PUSH1 0x80 DUP6 DUP8 SUB SLT ISZERO PUSH2 0x2BED JUMPI PUSH2 0x2BEC PUSH2 0x22EC JUMP JUMPDEST JUMPDEST PUSH0 PUSH2 0x2BFA DUP8 DUP3 DUP9 ADD PUSH2 0x2503 JUMP JUMPDEST SWAP5 POP POP PUSH1 0x20 PUSH2 0x2C0B DUP8 DUP3 DUP9 ADD PUSH2 0x2503 JUMP JUMPDEST SWAP4 POP POP PUSH1 0x40 PUSH2 0x2C1C DUP8 DUP3 DUP9 ADD PUSH2 0x2456 JUMP JUMPDEST SWAP3 POP POP PUSH1 0x60 DUP6 ADD CALLDATALOAD PUSH8 0xFFFFFFFFFFFFFFFF DUP2 GT ISZERO PUSH2 0x2C3D JUMPI PUSH2 0x2C3C PUSH2 0x22F0 JUMP JUMPDEST JUMPDEST PUSH2 0x2C49 DUP8 DUP3 DUP9 ADD PUSH2 0x2BA8 JUMP JUMPDEST SWAP2 POP POP SWAP3 SWAP6 SWAP2 SWAP5 POP SWAP3 POP JUMP JUMPDEST PUSH0 PUSH0 PUSH1 0x40 DUP4 DUP6 SUB SLT ISZERO PUSH2 0x2C6B JUMPI PUSH2 0x2C6A PUSH2 0x22EC JUMP JUMPDEST JUMPDEST PUSH0 PUSH2 0x2C78 DUP6 DUP3 DUP7 ADD PUSH2 0x2503 JUMP JUMPDEST SWAP3 POP POP PUSH1 0x20 PUSH2 0x2C89 DUP6 DUP3 DUP7 ADD PUSH2 0x2503 JUMP JUMPDEST SWAP2 POP POP SWAP3 POP SWAP3 SWAP1 POP JUMP JUMPDEST PUSH32 0x4E487B7100000000000000000000000000000000000000000000000000000000 PUSH0 MSTORE PUSH1 0x22 PUSH1 0x4 MSTORE PUSH1 0x24 PUSH0 REVERT JUMPDEST PUSH0 PUSH1 0x2 DUP3 DIV SWAP1 POP PUSH1 0x1 DUP3 AND DUP1 PUSH2 0x2CD7 JUMPI PUSH1 0x7F DUP3 AND SWAP2 POP JUMPDEST PUSH1 0x20 DUP3 LT DUP2 SUB PUSH2 0x2CEA JUMPI PUSH2 0x2CE9 PUSH2 0x2C93 JUMP JUMPDEST JUMPDEST POP SWAP2 SWAP1 POP JUMP JUMPDEST PUSH0 PUSH1 0x60 DUP3 ADD SWAP1 POP PUSH2 0x2D03 PUSH0 DUP4 ADD DUP7 PUSH2 0x24C5 JUMP JUMPDEST PUSH2 0x2D10 PUSH1 0x20 DUP4 ADD DUP6 PUSH2 0x2856 JUMP JUMPDEST PUSH2 0x2D1D PUSH1 0x40 DUP4 ADD DUP5 PUSH2 0x24C5 JUMP JUMPDEST SWAP5 SWAP4 POP POP POP POP JUMP JUMPDEST PUSH32 0x4E487B7100000000000000000000000000000000000000000000000000000000 PUSH0 MSTORE PUSH1 0x11 PUSH1 0x4 MSTORE PUSH1 0x24 PUSH0 REVERT JUMPDEST PUSH0 PUSH2 0x2D5C DUP3 PUSH2 0x2437 JUMP JUMPDEST SWAP2 POP PUSH2 0x2D67 DUP4 PUSH2 0x2437 JUMP JUMPDEST SWAP3 POP DUP3 DUP3 SUB SWAP1 POP DUP2 DUP2 GT ISZERO PUSH2 0x2D7F JUMPI PUSH2 0x2D7E PUSH2 0x2D25 JUMP JUMPDEST JUMPDEST SWAP3 SWAP2 POP POP JUMP JUMPDEST PUSH32 0x4E487B7100000000000000000000000000000000000000000000000000000000 PUSH0 MSTORE PUSH1 0x32 PUSH1 0x4 MSTORE PUSH1 0x24 PUSH0 REVERT JUMPDEST PUSH32 0x4665742073657276697200000000000000000000000000000000000000000000 PUSH0 DUP3 ADD MSTORE POP JUMP JUMPDEST PUSH0 PUSH2 0x2DE6 PUSH1 0xA DUP4 PUSH2 0x23B1 JUMP JUMPDEST SWAP2 POP PUSH2 0x2DF1 DUP3 PUSH2 0x2DB2 JUMP JUMPDEST PUSH1 0x20 DUP3 ADD SWAP1 POP SWAP2 SWAP1 POP JUMP JUMPDEST PUSH0 PUSH1 0x20 DUP3 ADD SWAP1 POP DUP2 DUP2 SUB PUSH0 DUP4 ADD MSTORE PUSH2 0x2E13 DUP2 PUSH2 0x2DDA JUMP JUMPDEST SWAP1 POP SWAP2 SWAP1 POP JUMP JUMPDEST PUSH0 DUP2 SWAP1 POP DUP2 PUSH0 MSTORE PUSH1 0x20 PUSH0 KECCAK256 SWAP1 POP SWAP2 SWAP1 POP JUMP JUMPDEST PUSH0 PUSH1 0x20 PUSH1 0x1F DUP4 ADD DIV SWAP1 POP SWAP2 SWAP1 POP JUMP JUMPDEST PUSH0 DUP3 DUP3 SHL SWAP1 POP SWAP3 SWAP2 POP POP JUMP JUMPDEST PUSH0 PUSH1 0x8 DUP4 MUL PUSH2 0x2E76 PUSH32 0xFFFFFFFFFFFFFFFFFFFFFFFFFFFFFFFFFFFFFFFFFFFFFFFFFFFFFFFFFFFFFFFF DUP3 PUSH2 0x2E3B JUMP JUMPDEST PUSH2 0x2E80 DUP7 DUP4 PUSH2 0x2E3B JUMP JUMPDEST SWAP6 POP DUP1 NOT DUP5 AND SWAP4 POP DUP1 DUP7 AND DUP5 OR SWAP3 POP POP POP SWAP4 SWAP3 POP POP POP JUMP JUMPDEST PUSH0 DUP2 SWAP1 POP SWAP2 SWAP1 POP JUMP JUMPDEST PUSH0 PUSH2 0x2EBB PUSH2 0x2EB6 PUSH2 0x2EB1 DUP5 PUSH2 0x2437 JUMP JUMPDEST PUSH2 0x2E98 JUMP JUMPDEST PUSH2 0x2437 JUMP JUMPDEST SWAP1 POP SWAP2 SWAP1 POP JUMP JUMPDEST PUSH0 DUP2 SWAP1 POP SWAP2 SWAP1 POP JUMP JUMPDEST PUSH2 0x2ED4 DUP4 PUSH2 0x2EA1 JUMP JUMPDEST PUSH2 0x2EE8 PUSH2 0x2EE0 DUP3 PUSH2 0x2EC2 JUMP JUMPDEST DUP5 DUP5 SLOAD PUSH2 0x2E47 JUMP JUMPDEST DUP3 SSTORE POP POP POP POP JUMP JUMPDEST PUSH0 PUSH0 SWAP1 POP SWAP1 JUMP JUMPDEST PUSH2 0x2EFF PUSH2 0x2EF0 JUMP JUMPDEST PUSH2 0x2F0A DUP2 DUP5 DUP5 PUSH2 0x2ECB JUMP JUMPDEST POP POP POP JUMP JUMPDEST JUMPDEST DUP2 DUP2 LT ISZERO PUSH2 0x2F2D JUMPI PUSH2 0x2F22 PUSH0 DUP3 PUSH2 0x2EF7 JUMP JUMPDEST PUSH1 0x1 DUP2 ADD SWAP1 POP PUSH2 0x2F10 JUMP JUMPDEST POP POP JUMP JUMPDEST PUSH1 0x1F DUP3 GT ISZERO PUSH2 0x2F72 JUMPI PUSH2 0x2F43 DUP2 PUSH2 0x2E1A JUMP JUMPDEST PUSH2 0x2F4C DUP5 PUSH2 0x2E2C JUMP JUMPDEST DUP2 ADD PUSH1 0x20 DUP6 LT ISZERO PUSH2 0x2F5B JUMPI DUP2 SWAP1 POP JUMPDEST PUSH2 0x2F6F PUSH2 0x2F67 DUP6 PUSH2 0x2E2C JUMP JUMPDEST DUP4 ADD DUP3 PUSH2 0x2F0F JUMP JUMPDEST POP POP JUMPDEST POP POP POP JUMP JUMPDEST PUSH0 DUP3 DUP3 SHR SWAP1 POP SWAP3 SWAP2 POP POP JUMP JUMPDEST PUSH0 PUSH2 0x2F92 PUSH0 NOT DUP5 PUSH1 0x8 MUL PUSH2 0x2F77 JUMP JUMPDEST NOT DUP1 DUP4 AND SWAP2 POP POP SWAP3 SWAP2 POP POP JUMP JUMPDEST PUSH0 PUSH2 0x2FAA DUP4 DUP4 PUSH2 0x2F83 JUMP JUMPDEST SWAP2 POP DUP3 PUSH1 0x2 MUL DUP3 OR SWAP1 POP SWAP3 SWAP2 POP POP JUMP JUMPDEST PUSH2 0x2FC3 DUP3 PUSH2 0x23A7 JUMP JUMPDEST PUSH8 0xFFFFFFFFFFFFFFFF DUP2 GT ISZERO PUSH2 0x2FDC JUMPI PUSH2 0x2FDB PUSH2 0x2671 JUMP JUMPDEST JUMPDEST PUSH2 0x2FE6 DUP3 SLOAD PUSH2 0x2CC0 JUMP JUMPDEST PUSH2 0x2FF1 DUP3 DUP3 DUP6 PUSH2 0x2F31 JUMP JUMPDEST PUSH0 PUSH1 0x20 SWAP1 POP PUSH1 0x1F DUP4 GT PUSH1 0x1 DUP2 EQ PUSH2 0x3022 JUMPI PUSH0 DUP5 ISZERO PUSH2 0x3010 JUMPI DUP3 DUP8 ADD MLOAD SWAP1 POP JUMPDEST PUSH2 0x301A DUP6 DUP3 PUSH2 0x2F9F JUMP JUMPDEST DUP7 SSTORE POP PUSH2 0x3081 JUMP JUMPDEST PUSH1 0x1F NOT DUP5 AND PUSH2 0x3030 DUP7 PUSH2 0x2E1A JUMP JUMPDEST PUSH0 JUMPDEST DUP3 DUP2 LT ISZERO PUSH2 0x3057 JUMPI DUP5 DUP10 ADD MLOAD DUP3 SSTORE PUSH1 0x1 DUP3 ADD SWAP2 POP PUSH1 0x20 DUP6 ADD SWAP5 POP PUSH1 0x20 DUP2 ADD SWAP1 POP PUSH2 0x3032 JUMP JUMPDEST DUP7 DUP4 LT ISZERO PUSH2 0x3074 JUMPI DUP5 DUP10 ADD MLOAD PUSH2 0x3070 PUSH1 0x1F DUP10 AND DUP3 PUSH2 0x2F83 JUMP JUMPDEST DUP4 SSTORE POP JUMPDEST PUSH1 0x1 PUSH1 0x2 DUP9 MUL ADD DUP9 SSTORE POP POP POP JUMPDEST POP POP POP POP POP POP JUMP JUMPDEST PUSH0 DUP2 MLOAD SWAP1 POP PUSH2 0x3097 DUP2 PUSH2 0x24ED JUMP JUMPDEST SWAP3 SWAP2 POP POP JUMP JUMPDEST PUSH0 PUSH1 0x20 DUP3 DUP5 SUB SLT ISZERO PUSH2 0x30B2 JUMPI PUSH2 0x30B1 PUSH2 0x22EC JUMP JUMPDEST JUMPDEST PUSH0 PUSH2 0x30BF DUP5 DUP3 DUP6 ADD PUSH2 0x3089 JUMP JUMPDEST SWAP2 POP POP SWAP3 SWAP2 POP POP JUMP JUMPDEST PUSH0 PUSH2 0x30D2 DUP3 PUSH2 0x2437 JUMP JUMPDEST SWAP2 POP PUSH32 0xFFFFFFFFFFFFFFFFFFFFFFFFFFFFFFFFFFFFFFFFFFFFFFFFFFFFFFFFFFFFFFFF DUP3 SUB PUSH2 0x3104 JUMPI PUSH2 0x3103 PUSH2 0x2D25 JUMP JUMPDEST JUMPDEST PUSH1 0x1 DUP3 ADD SWAP1 POP SWAP2 SWAP1 POP JUMP JUMPDEST PUSH0 DUP2 SWAP1 POP SWAP3 SWAP2 POP POP JUMP JUMPDEST PUSH0 PUSH2 0x3123 DUP3 PUSH2 0x23A7 JUMP JUMPDEST PUSH2 0x312D DUP2 DUP6 PUSH2 0x310F JUMP JUMPDEST SWAP4 POP PUSH2 0x313D DUP2 DUP6 PUSH1 0x20 DUP7 ADD PUSH2 0x23C1 JUMP JUMPDEST DUP1 DUP5 ADD SWAP2 POP POP SWAP3 SWAP2 POP POP JUMP JUMPDEST PUSH0 PUSH2 0x3154 DUP3 DUP6 PUSH2 0x3119 JUMP JUMPDEST SWAP2 POP PUSH2 0x3160 DUP3 DUP5 PUSH2 0x3119 JUMP JUMPDEST SWAP2 POP DUP2 SWAP1 POP SWAP4 SWAP3 POP POP POP JUMP JUMPDEST PUSH0 DUP2 MLOAD SWAP1 POP SWAP2 SWAP1 POP JUMP JUMPDEST PUSH0 DUP3 DUP3 MSTORE PUSH1 0x20 DUP3 ADD SWAP1 POP SWAP3 SWAP2 POP POP JUMP JUMPDEST PUSH0 PUSH2 0x3190 DUP3 PUSH2 0x316C JUMP JUMPDEST PUSH2 0x319A DUP2 DUP6 PUSH2 0x3176 JUMP JUMPDEST SWAP4 POP PUSH2 0x31AA DUP2 DUP6 PUSH1 0x20 DUP7 ADD PUSH2 0x23C1 JUMP JUMPDEST PUSH2 0x31B3 DUP2 PUSH2 0x23CF JUMP JUMPDEST DUP5 ADD SWAP2 POP POP SWAP3 SWAP2 POP POP JUMP JUMPDEST PUSH0 PUSH1 0x80 DUP3 ADD SWAP1 POP PUSH2 0x31D1 PUSH0 DUP4 ADD DUP8 PUSH2 0x24C5 JUMP JUMPDEST PUSH2 0x31DE PUSH1 0x20 DUP4 ADD DUP7 PUSH2 0x24C5 JUMP JUMPDEST PUSH2 0x31EB PUSH1 0x40 DUP4 ADD DUP6 PUSH2 0x2856 JUMP JUMPDEST DUP2 DUP2 SUB PUSH1 0x60 DUP4 ADD MSTORE PUSH2 0x31FD DUP2 DUP5 PUSH2 0x3186 JUMP JUMPDEST SWAP1 POP SWAP6 SWAP5 POP POP POP POP POP JUMP JUMPDEST PUSH0 DUP2 MLOAD SWAP1 POP PUSH2 0x3216 DUP2 PUSH2 0x231F JUMP JUMPDEST SWAP3 SWAP2 POP POP JUMP JUMPDEST PUSH0 PUSH1 0x20 DUP3 DUP5 SUB SLT ISZERO PUSH2 0x3231 JUMPI PUSH2 0x3230 PUSH2 0x22EC JUMP JUMPDEST JUMPDEST PUSH0 PUSH2 0x323E DUP5 DUP3 DUP6 ADD PUSH2 0x3208 JUMP JUMPDEST SWAP2 POP POP SWAP3 SWAP2 POP POP JUMP JUMPDEST PUSH32 0x4E487B7100000000000000000000000000000000000000000000000000000000 PUSH0 MSTORE PUSH1 0x12 PUSH1 0x4 MSTORE PUSH1 0x24 PUSH0 REVERT JUMPDEST PUSH0 PUSH1 0x40 DUP3 ADD SWAP1 POP PUSH2 0x3287 PUSH0 DUP4 ADD DUP6 PUSH2 0x24C5 JUMP JUMPDEST PUSH2 0x3294 PUSH1 0x20 DUP4 ADD DUP5 PUSH2 0x2856 JUMP JUMPDEST SWAP4 SWAP3 POP POP POP JUMP JUMPDEST PUSH0 PUSH1 0x40 DUP3 ADD SWAP1 POP PUSH2 0x32AE PUSH0 DUP4 ADD DUP6 PUSH2 0x24C5 JUMP JUMPDEST PUSH2 0x32BB PUSH1 0x20 DUP4 ADD DUP5 PUSH2 0x2603 JUMP JUMPDEST SWAP4 SWAP3 POP POP POP JUMP INVALID LOG2 PUSH5 0x6970667358 0x22 SLT KECCAK256 DELEGATECALL PUSH27 0x848ACD9822CDB5183908F9E0B7A3964F052B8AEAE74C0BAE03AFD6 PUSH28 0x8F5464736F6C634300081E0033000000000000000000000000000000 "
		},
		"gasEstimates": {
			"creation": {
				"codeDepositCost": "2609600",
				"executionCost": "infinite",
				"totalCost": "infinite"
			},
			"external": {
				"DEFAULT_ADMIN_ROLE()": "396",
				"MINTER_ROLE()": "369",
				"approve(address,uint256)": "infinite",
				"balanceOf(address)": "infinite",
				"exists(uint256)": "infinite",
				"getApproved(uint256)": "infinite",
				"getRoleAdmin(bytes32)": "infinite",
				"getTokenData(uint256)": "infinite",
				"grantRole(bytes32,address)": "infinite",
				"hasRole(bytes32,address)": "3211",
				"isApprovedForAll(address,address)": "infinite",
				"isExpired(uint256)": "2874",
				"isUsed(uint256)": "infinite",
				"markAsUsed(uint256,string,bool)": "infinite",
				"name()": "infinite",
				"ownerOf(uint256)": "infinite",
				"renounceRole(bytes32,address)": "infinite",
				"revokeRole(bytes32,address)": "infinite",
				"safeMint(address,string,uint256,string)": "infinite",
				"safeTransferFrom(address,address,uint256)": "infinite",
				"safeTransferFrom(address,address,uint256,bytes)": "infinite",
				"setApprovalForAll(address,bool)": "infinite",
				"supportsInterface(bytes4)": "917",
				"symbol()": "infinite",
				"tokenData(uint256)": "infinite",
				"tokenURI(uint256)": "infinite",
				"transferFrom(address,address,uint256)": "infinite"
			}
		},
		"methodIdentifiers": {
			"DEFAULT_ADMIN_ROLE()": "a217fddf",
			"MINTER_ROLE()": "d5391393",
			"approve(address,uint256)": "095ea7b3",
			"balanceOf(address)": "70a08231",
			"exists(uint256)": "4f558e79",
			"getApproved(uint256)": "081812fc",
			"getRoleAdmin(bytes32)": "248a9ca3",
			"getTokenData(uint256)": "b09afec1",
			"grantRole(bytes32,address)": "2f2ff15d",
			"hasRole(bytes32,address)": "91d14854",
			"isApprovedForAll(address,address)": "e985e9c5",
			"isExpired(uint256)": "d9548e53",
			"isUsed(uint256)": "336ccba5",
			"markAsUsed(uint256,string,bool)": "3f54c284",
			"name()": "06fdde03",
			"ownerOf(uint256)": "6352211e",
			"renounceRole(bytes32,address)": "36568abe",
			"revokeRole(bytes32,address)": "d547741f",
			"safeMint(address,string,uint256,string)": "85d37430",
			"safeTransferFrom(address,address,uint256)": "42842e0e",
			"safeTransferFrom(address,address,uint256,bytes)": "b88d4fde",
			"setApprovalForAll(address,bool)": "a22cb465",
			"supportsInterface(bytes4)": "01ffc9a7",
			"symbol()": "95d89b41",
			"tokenData(uint256)": "b4b5b48f",
			"tokenURI(uint256)": "c87b56dd",
			"transferFrom(address,address,uint256)": "23b872dd"
		}
	},
	"abi": [
		{
			"inputs": [
				{
					"internalType": "address",
					"name": "defaultAdmin",
					"type": "address"
				},
				{
					"internalType": "address",
					"name": "minter",
					"type": "address"
				}
			],
			"stateMutability": "nonpayable",
			"type": "constructor"
		},
		{
			"inputs": [],
			"name": "AccessControlBadConfirmation",
			"type": "error"
		},
		{
			"inputs": [
				{
					"internalType": "address",
					"name": "account",
					"type": "address"
				},
				{
					"internalType": "bytes32",
					"name": "neededRole",
					"type": "bytes32"
				}
			],
			"name": "AccessControlUnauthorizedAccount",
			"type": "error"
		},
		{
			"inputs": [
				{
					"internalType": "address",
					"name": "sender",
					"type": "address"
				},
				{
					"internalType": "uint256",
					"name": "tokenId",
					"type": "uint256"
				},
				{
					"internalType": "address",
					"name": "owner",
					"type": "address"
				}
			],
			"name": "ERC721IncorrectOwner",
			"type": "error"
		},
		{
			"inputs": [
				{
					"internalType": "address",
					"name": "operator",
					"type": "address"
				},
				{
					"internalType": "uint256",
					"name": "tokenId",
					"type": "uint256"
				}
			],
			"name": "ERC721InsufficientApproval",
			"type": "error"
		},
		{
			"inputs": [
				{
					"internalType": "address",
					"name": "approver",
					"type": "address"
				}
			],
			"name": "ERC721InvalidApprover",
			"type": "error"
		},
		{
			"inputs": [
				{
					"internalType": "address",
					"name": "operator",
					"type": "address"
				}
			],
			"name": "ERC721InvalidOperator",
			"type": "error"
		},
		{
			"inputs": [
				{
					"internalType": "address",
					"name": "owner",
					"type": "address"
				}
			],
			"name": "ERC721InvalidOwner",
			"type": "error"
		},
		{
			"inputs": [
				{
					"internalType": "address",
					"name": "receiver",
					"type": "address"
				}
			],
			"name": "ERC721InvalidReceiver",
			"type": "error"
		},
		{
			"inputs": [
				{
					"internalType": "address",
					"name": "sender",
					"type": "address"
				}
			],
			"name": "ERC721InvalidSender",
			"type": "error"
		},
		{
			"inputs": [
				{
					"internalType": "uint256",
					"name": "tokenId",
					"type": "uint256"
				}
			],
			"name": "ERC721NonexistentToken",
			"type": "error"
		},
		{
			"anonymous": false,
			"inputs": [
				{
					"indexed": true,
					"internalType": "address",
					"name": "owner",
					"type": "address"
				},
				{
					"indexed": true,
					"internalType": "address",
					"name": "approved",
					"type": "address"
				},
				{
					"indexed": true,
					"internalType": "uint256",
					"name": "tokenId",
					"type": "uint256"
				}
			],
			"name": "Approval",
			"type": "event"
		},
		{
			"anonymous": false,
			"inputs": [
				{
					"indexed": true,
					"internalType": "address",
					"name": "owner",
					"type": "address"
				},
				{
					"indexed": true,
					"internalType": "address",
					"name": "operator",
					"type": "address"
				},
				{
					"indexed": false,
					"internalType": "bool",
					"name": "approved",
					"type": "bool"
				}
			],
			"name": "ApprovalForAll",
			"type": "event"
		},
		{
			"anonymous": false,
			"inputs": [
				{
					"indexed": true,
					"internalType": "bytes32",
					"name": "role",
					"type": "bytes32"
				},
				{
					"indexed": true,
					"internalType": "bytes32",
					"name": "previousAdminRole",
					"type": "bytes32"
				},
				{
					"indexed": true,
					"internalType": "bytes32",
					"name": "newAdminRole",
					"type": "bytes32"
				}
			],
			"name": "RoleAdminChanged",
			"type": "event"
		},
		{
			"anonymous": false,
			"inputs": [
				{
					"indexed": true,
					"internalType": "bytes32",
					"name": "role",
					"type": "bytes32"
				},
				{
					"indexed": true,
					"internalType": "address",
					"name": "account",
					"type": "address"
				},
				{
					"indexed": true,
					"internalType": "address",
					"name": "sender",
					"type": "address"
				}
			],
			"name": "RoleGranted",
			"type": "event"
		},
		{
			"anonymous": false,
			"inputs": [
				{
					"indexed": true,
					"internalType": "bytes32",
					"name": "role",
					"type": "bytes32"
				},
				{
					"indexed": true,
					"internalType": "address",
					"name": "account",
					"type": "address"
				},
				{
					"indexed": true,
					"internalType": "address",
					"name": "sender",
					"type": "address"
				}
			],
			"name": "RoleRevoked",
			"type": "event"
		},
		{
			"anonymous": false,
			"inputs": [
				{
					"indexed": true,
					"internalType": "address",
					"name": "from",
					"type": "address"
				},
				{
					"indexed": true,
					"internalType": "address",
					"name": "to",
					"type": "address"
				},
				{
					"indexed": true,
					"internalType": "uint256",
					"name": "tokenId",
					"type": "uint256"
				}
			],
			"name": "Transfer",
			"type": "event"
		},
		{
			"inputs": [],
			"name": "DEFAULT_ADMIN_ROLE",
			"outputs": [
				{
					"internalType": "bytes32",
					"name": "",
					"type": "bytes32"
				}
			],
			"stateMutability": "view",
			"type": "function"
		},
		{
			"inputs": [],
			"name": "MINTER_ROLE",
			"outputs": [
				{
					"internalType": "bytes32",
					"name": "",
					"type": "bytes32"
				}
			],
			"stateMutability": "view",
			"type": "function"
		},
		{
			"inputs": [
				{
					"internalType": "address",
					"name": "to",
					"type": "address"
				},
				{
					"internalType": "uint256",
					"name": "tokenId",
					"type": "uint256"
				}
			],
			"name": "approve",
			"outputs": [],
			"stateMutability": "nonpayable",
			"type": "function"
		},
		{
			"inputs": [
				{
					"internalType": "address",
					"name": "owner",
					"type": "address"
				}
			],
			"name": "balanceOf",
			"outputs": [
				{
					"internalType": "uint256",
					"name": "",
					"type": "uint256"
				}
			],
			"stateMutability": "view",
			"type": "function"
		},
		{
			"inputs": [
				{
					"internalType": "uint256",
					"name": "tokenId",
					"type": "uint256"
				}
			],
			"name": "exists",
			"outputs": [
				{
					"internalType": "bool",
					"name": "",
					"type": "bool"
				}
			],
			"stateMutability": "view",
			"type": "function"
		},
		{
			"inputs": [
				{
					"internalType": "uint256",
					"name": "tokenId",
					"type": "uint256"
				}
			],
			"name": "getApproved",
			"outputs": [
				{
					"internalType": "address",
					"name": "",
					"type": "address"
				}
			],
			"stateMutability": "view",
			"type": "function"
		},
		{
			"inputs": [
				{
					"internalType": "bytes32",
					"name": "role",
					"type": "bytes32"
				}
			],
			"name": "getRoleAdmin",
			"outputs": [
				{
					"internalType": "bytes32",
					"name": "",
					"type": "bytes32"
				}
			],
			"stateMutability": "view",
			"type": "function"
		},
		{
			"inputs": [
				{
					"internalType": "uint256",
					"name": "tokenId",
					"type": "uint256"
				}
			],
			"name": "getTokenData",
			"outputs": [
				{
					"internalType": "string",
					"name": "description",
					"type": "string"
				},
				{
					"components": [
						{
							"internalType": "string",
							"name": "location",
							"type": "string"
						},
						{
							"internalType": "uint256",
							"name": "timestamp",
							"type": "uint256"
						},
						{
							"internalType": "bool",
							"name": "used",
							"type": "bool"
						}
					],
					"internalType": "struct DonationItem.Location[]",
					"name": "locations",
					"type": "tuple[]"
				},
				{
					"internalType": "uint256",
					"name": "expiration",
					"type": "uint256"
				}
			],
			"stateMutability": "view",
			"type": "function"
		},
		{
			"inputs": [
				{
					"internalType": "bytes32",
					"name": "role",
					"type": "bytes32"
				},
				{
					"internalType": "address",
					"name": "account",
					"type": "address"
				}
			],
			"name": "grantRole",
			"outputs": [],
			"stateMutability": "nonpayable",
			"type": "function"
		},
		{
			"inputs": [
				{
					"internalType": "bytes32",
					"name": "role",
					"type": "bytes32"
				},
				{
					"internalType": "address",
					"name": "account",
					"type": "address"
				}
			],
			"name": "hasRole",
			"outputs": [
				{
					"internalType": "bool",
					"name": "",
					"type": "bool"
				}
			],
			"stateMutability": "view",
			"type": "function"
		},
		{
			"inputs": [
				{
					"internalType": "address",
					"name": "owner",
					"type": "address"
				},
				{
					"internalType": "address",
					"name": "operator",
					"type": "address"
				}
			],
			"name": "isApprovedForAll",
			"outputs": [
				{
					"internalType": "bool",
					"name": "",
					"type": "bool"
				}
			],
			"stateMutability": "view",
			"type": "function"
		},
		{
			"inputs": [
				{
					"internalType": "uint256",
					"name": "tokenId",
					"type": "uint256"
				}
			],
			"name": "isExpired",
			"outputs": [
				{
					"internalType": "bool",
					"name": "",
					"type": "bool"
				}
			],
			"stateMutability": "view",
			"type": "function"
		},
		{
			"inputs": [
				{
					"internalType": "uint256",
					"name": "tokenId",
					"type": "uint256"
				}
			],
			"name": "isUsed",
			"outputs": [
				{
					"internalType": "bool",
					"name": "",
					"type": "bool"
				}
			],
			"stateMutability": "view",
			"type": "function"
		},
		{
			"inputs": [
				{
					"internalType": "uint256",
					"name": "tokenId",
					"type": "uint256"
				},
				{
					"internalType": "string",
					"name": "location",
					"type": "string"
				},
				{
					"internalType": "bool",
					"name": "used",
					"type": "bool"
				}
			],
			"name": "markAsUsed",
			"outputs": [],
			"stateMutability": "nonpayable",
			"type": "function"
		},
		{
			"inputs": [],
			"name": "name",
			"outputs": [
				{
					"internalType": "string",
					"name": "",
					"type": "string"
				}
			],
			"stateMutability": "view",
			"type": "function"
		},
		{
			"inputs": [
				{
					"internalType": "uint256",
					"name": "tokenId",
					"type": "uint256"
				}
			],
			"name": "ownerOf",
			"outputs": [
				{
					"internalType": "address",
					"name": "",
					"type": "address"
				}
			],
			"stateMutability": "view",
			"type": "function"
		},
		{
			"inputs": [
				{
					"internalType": "bytes32",
					"name": "role",
					"type": "bytes32"
				},
				{
					"internalType": "address",
					"name": "callerConfirmation",
					"type": "address"
				}
			],
			"name": "renounceRole",
			"outputs": [],
			"stateMutability": "nonpayable",
			"type": "function"
		},
		{
			"inputs": [
				{
					"internalType": "bytes32",
					"name": "role",
					"type": "bytes32"
				},
				{
					"internalType": "address",
					"name": "account",
					"type": "address"
				}
			],
			"name": "revokeRole",
			"outputs": [],
			"stateMutability": "nonpayable",
			"type": "function"
		},
		{
			"inputs": [
				{
					"internalType": "address",
					"name": "to",
					"type": "address"
				},
				{
					"internalType": "string",
					"name": "description",
					"type": "string"
				},
				{
					"internalType": "uint256",
					"name": "expiration",
					"type": "uint256"
				},
				{
					"internalType": "string",
					"name": "initialLocation",
					"type": "string"
				}
			],
			"name": "safeMint",
			"outputs": [
				{
					"internalType": "uint256",
					"name": "",
					"type": "uint256"
				}
			],
			"stateMutability": "nonpayable",
			"type": "function"
		},
		{
			"inputs": [
				{
					"internalType": "address",
					"name": "from",
					"type": "address"
				},
				{
					"internalType": "address",
					"name": "to",
					"type": "address"
				},
				{
					"internalType": "uint256",
					"name": "tokenId",
					"type": "uint256"
				}
			],
			"name": "safeTransferFrom",
			"outputs": [],
			"stateMutability": "nonpayable",
			"type": "function"
		},
		{
			"inputs": [
				{
					"internalType": "address",
					"name": "from",
					"type": "address"
				},
				{
					"internalType": "address",
					"name": "to",
					"type": "address"
				},
				{
					"internalType": "uint256",
					"name": "tokenId",
					"type": "uint256"
				},
				{
					"internalType": "bytes",
					"name": "data",
					"type": "bytes"
				}
			],
			"name": "safeTransferFrom",
			"outputs": [],
			"stateMutability": "nonpayable",
			"type": "function"
		},
		{
			"inputs": [
				{
					"internalType": "address",
					"name": "operator",
					"type": "address"
				},
				{
					"internalType": "bool",
					"name": "approved",
					"type": "bool"
				}
			],
			"name": "setApprovalForAll",
			"outputs": [],
			"stateMutability": "nonpayable",
			"type": "function"
		},
		{
			"inputs": [
				{
					"internalType": "bytes4",
					"name": "interfaceId",
					"type": "bytes4"
				}
			],
			"name": "supportsInterface",
			"outputs": [
				{
					"internalType": "bool",
					"name": "",
					"type": "bool"
				}
			],
			"stateMutability": "view",
			"type": "function"
		},
		{
			"inputs": [],
			"name": "symbol",
			"outputs": [
				{
					"internalType": "string",
					"name": "",
					"type": "string"
				}
			],
			"stateMutability": "view",
			"type": "function"
		},
		{
			"inputs": [
				{
					"internalType": "uint256",
					"name": "",
					"type": "uint256"
				}
			],
			"name": "tokenData",
			"outputs": [
				{
					"internalType": "string",
					"name": "description",
					"type": "string"
				},
				{
					"internalType": "uint256",
					"name": "expiration",
					"type": "uint256"
				}
			],
			"stateMutability": "view",
			"type": "function"
		},
		{
			"inputs": [
				{
					"internalType": "uint256",
					"name": "tokenId",
					"type": "uint256"
				}
			],
			"name": "tokenURI",
			"outputs": [
				{
					"internalType": "string",
					"name": "",
					"type": "string"
				}
			],
			"stateMutability": "view",
			"type": "function"
		},
		{
			"inputs": [
				{
					"internalType": "address",
					"name": "from",
					"type": "address"
				},
				{
					"internalType": "address",
					"name": "to",
					"type": "address"
				},
				{
					"internalType": "uint256",
					"name": "tokenId",
					"type": "uint256"
				}
			],
			"name": "transferFrom",
			"outputs": [],
			"stateMutability": "nonpayable",
			"type": "function"
		}
	]
}